:020000040800F2
:100000000000022041030008490300082102000803
:1000100025020008290200082D0200080000000047
:100020000000000000000000000000007D02000849
:100030005503000800000000150300082503000810
:100040005B0300085B0300085B0300085B03000818
:100050005B0300085B0300085B0300085B03000808
:100060005B0300085B0300085B0300085B030008F8
:100070005B0300085B0300085B0300085B030008E8
:100080005B0300085B0300085B030008000000003E
:100090000000000000000000000000005B030008FA
:1000A0005B0300085B0300085B0300085B030008B8
:1000B0005B0300085B0300085B0300085B030008A8
:1000C0005B0300085B0300085B0300085B03000898
:1000D0005B0300085B0300085B03000800000000EE
:1000E0005B0300085B0300085B03000800000000DE
:1000F0000000000000000000000000005B0300089A
:10010000000000005B0300085B0300085B030008BD
:1001100000000000000000000000000000000000DF
:100120005B0300085B0300085B0300085B03000837
:100130005B03000800000000000000000000000059
:100140000000000000000000000000005B03000849
:100150005B0300085B0300085B0300085B03000807
:100160005B0300085B0300080000000000000000C3
:10017000000000000000000000000000000000007F
:10018000000000005B030008000000000000000009
:100190005B0300085B03000800F002F802F038FF80
:1001A0000AA090E8000C82448344AAF10107DA45D2
:1001B00001D102F02DFFAFF2090EBAE80F0013F0E3
:1001C000010F18BFFB1A43F0010318472C790000F8
:1001D0004C790000103A24BF78C878C1FAD8520789
:1001E00024BF30C830C144BF04680C6070470000B1
:1001F0000023002400250026103A28BF78C1FBD830
:10020000520728BF30C148BF0B6070471FB507F0C9
:100210009CF89DE8030000F0FBFC00F0C9FE1FBD48
:10022000102304E0202302E0302300E040239C461A
:10023000F0B404AE7546E80801D3EFF309860E4F1B
:100240000FCE0FC70FBC0FC74046494652465B460C
:100250000FC71DCE3100A60A00D304316E0900D2AB
:1002600048311FC7EFF309806946EFF3148663C76F
:100270006046014904F0A8F8980100201EF0040F20
:100280000CBFEFF30880EFF30980816911F8021CBD
:1002900091BB01B590E80F10E047BDE800508CE835
:1002A0000300244B93E80600914208BF704741B910
:1002B0001EF0100F10D12049086820F001000860DE
:1002C0000AE02CE9F00F1EF0100F08BF2CED108A89
:1002D000C1F838C081F822E01A6092F82210906BC1
:1002E00061F0FF0E1EF0100F08BFB0EC108AB0E8EE
:1002F000F00F80F309887047104A13689942FAD8C2
:1003000001B552F821C00FC8E047BDE80050CCF855
:100310000000704701B505F031F9BDE80140EFF389
:10032000098CBEE701B505F0B1FBBDE80140EFF374
:10033000098CB6E70803002034EF00E05C75000884
:100340000648804706480047FEE7FEE7FEE7FEE76F
:10035000FEE7FEE7FEE7FEE7FEE7FEE78522000890
:1003600099010008704702F07BBE0844401E491EF8
:10037000884370470821001DF7E72DE9F041174633
:100380000E460446FFF7F6FFA042054633D9002F7C
:100390001CBF06F10C0002F0C5FE30467468F4B1D3
:1003A0002168A94217D305F1080291423CBF616858
:1003B000416007D3626861194A602268521B0A6073
:1003C00041602560002F1CBF06F10C0002F02AFFDF
:1003D000201DBDE8F08120466468002CE0D129464C
:1003E000304600F001FC0028D7D1002F1CBF06F1D9
:1003F0000C0002F017FF0020BDE8F08110B50446A4
:1004000000F0E9FB01682046BDE810400122B4E796
:1004100070B516460D46041F002808BF70BD002E9B
:100420001CBF05F10C0002F07DFE2B465868002829
:1004300018BFA04238BF0346F8D31968CA18A242B1
:1004400018BF5C6003D122681C4611441960216802
:100450000A19824218BF606004D142686260006875
:1004600008442060002E1CBF05F10C0002F0DAFEEB
:1004700070BD10B5044600F0AEFB01682046BDE833
:1004800010400122C4E753EA020C00F069802DE914
:10049000F04B4FF00006002B1FBFB3FA83F503FAB1
:1004A00005F424FA05F65E4012BF1643B2FA82F54F
:1004B00002FA05F4C5F120051EBF22FA05FC44EA44
:1004C0000C04203556EA044C4FEA144418BF641C4F
:1004D0004FF000084FF00009904271EB030C39D344
:1004E000002919BFB1FA81F701FA07F6B0FA80F7CF
:1004F00000FA07F6C7F120071EBF20FA07FC46EAFC
:100500000C062037B6FBF4FCA7EB0507103F07F0FD
:100510001F0BCBF120062CFA06F60CFA0BFB44BF9E
:10052000B3460026202FA4BF5E464FF0000B5BEAC7
:10053000060C08BF4FF0010B19EB0B0948EB06083E
:10054000ABFB027C06FB02CC0BFB03CCC01B71EBAC
:100550000C01C1E70B46024641464846BDE8F08B18
:1005600013B5084318BF4FF0FF300146AFF30080CA
:10057000BDE81C40704700002DE9F04104461646D6
:100580000D464769007B80072ED0384602F074FE86
:1005900050BB3EB3012E02D0022E25D104E02046EE
:1005A00000F066F805441DE0384602F051FEE168AF
:1005B000002841F01001E16005DA204600F04CFC13
:1005C0000120BDE8F081C9030BD56268E16A914260
:1005D00000D81146A26911442269891A814200DDBE
:1005E00008460544002D01DA0220EAE7E16A606866
:1005F000E268814206D29103E06203D522F4003121
:1006000041F01002A6690027AE4213DCE16A814284
:1006100001D90B4600E0034603EB060C2369ACEB63
:10062000030CAC4506DD814201D98C4600E08446CE
:100630009C4505D1A760276042F02000A5620DE02F
:10064000AD1BE669AE1B8142A66000D90846C01A00
:10065000281A20605819606022F0200003490840E1
:10066000E060002084F84870ABE70000BFCFD7FF00
:1006700010B50146C268900703D0900607D5886A76
:100680000AE0FFF770FE01210160881E10BD8B6932
:10069000486818440B69C01A91F848301BB191F8AA
:1006A0004910401A10BD1103FCD50028FADD401E88
:1006B00010BD2DE9F04704464FF000094FF0FF3719
:1006C000C568D4E90486A80707D0204600F0F8FBE7
:1006D000304602F0B7FD002802DA3846BDE8F08760
:1006E000280502D54046FFF7C4FE4C21204600F005
:1006F00001FA206D20F0010020654846EEE770B554
:100700000C46064601F14C05284602F00BFD214639
:10071000304606F00DFE0446284602F083FD2046D2
:1007200070BD00002DE9F041044600F14C07384649
:1007300002F0F8FCE068810712D0800601D5A66AB5
:1007400004E0A169606808442169461A204600F067
:10075000B7FB0022054631462046FFF70DFF00E0BB
:100760000025384602F05EFD2846BDE8F0812DE9FF
:10077000F04118B1BDE8F041FFF7D4BF0B4E0025A2
:10078000304602F0CFFC0A4C6F1E07E02046FFF710
:10079000C9FF00B13D46206D20F00104002CF5D1C9
:1007A000304602F03FFD2846DFE70000A4020020AB
:1007B0009C0300202DE9F04716468846070010D01C
:1007C00006F14C00814602F0ADFC3046FFF771FFA8
:1007D00018F8010B61280DD0722805D0772841D177
:1007E00005E00020BDE8F0870125002405E0022592
:1007F000042402E0082448F2020518F8010B2B2813
:1008000006D0622809D018F8010C74280AD00BE031
:1008100045F0030544F00204EFE745F0040544F019
:100820000104EAE744F010043846214602F028FDAE
:10083000411C17D00021316171604FF40071F560E7
:10084000F1617061200704D5304602220021FFF7D4
:1008500093FE306D40F001003065484602F0E2FC46
:100860003046BFE70026F8E72DE9F04115460E4671
:100870000746214C204602F055FC2A4631463846B0
:10088000FFF798FF0546204602F0CCFC2846BDE85D
:10089000F0812DE9F0410E468046174D284602F0C2
:1008A00041FC164C206DC10704D0410804D020F053
:1008B0000104F7E7224612E05420FFF79FFD0700EE
:1008C00017D0206D47F001010843542120653846B8
:1008D00000F010F907F14C0002F052FC3A463146A4
:1008E0004046FFF767FF0446284602F09BFC20467F
:1008F000CDE70024F8E70000A40200209C030020BC
:1009000030B503461D783DB10A4612F8014B1CB1C3
:10091000AC42FAD15B1CF5E7181A30BD40EA01037E
:1009200010B59B070FD1042A0DD310C808C9121F98
:100930009C42F8D020BA19BA884201D9012010BDD2
:100940004FF0FF3010BD1AB1D30703D0521C07E09F
:10095000002010BD10F8013B11F8014B1B1B07D103
:1009600010F8013B11F8014B1B1B01D1921EF1D174
:10097000184610BD10B5431C02E010F8011B71B100
:100980008107FAD14FF0013202C88C1A8C4314EA65
:10099000C211F9D0C01A0A0603D0C01E10BDC01A79
:1009A00010BD0A0401D0801E10BD0902FCD0401EFB
:1009B00010BD032A40F2308010F0030C00F01580C7
:1009C00011F8013BBCF1020F624498BF11F801CB52
:1009D00000F8013B38BF11F8013BA2F1040298BFB7
:1009E00000F801CB38BF00F8013B11F0030300F021
:1009F0002580083AC0F0088051F8043B083A51F8C5
:100A000004CBA0E80810F5E7121D5CBF51F8043BC9
:100A100040F8043BAFF30080D20724BF11F8013B3C
:100A200011F801CB48BF11F8012B24BF00F8013B9E
:100A300000F801CB48BF00F8012B704710B5203AF1
:100A4000C0F00B80B1E81850A0E81850B1E8185079
:100A5000A0E81850203ABFF4F5AF5FEA027C24BF4B
:100A6000B1E81850A0E8185044BF18C918C0BDE834
:100A700010405FEA827C24BF51F8043B40F8043BFD
:100A800008BF7047D20728BF31F8023B48BF11F8B2
:100A9000012B28BF20F8023B48BF00F8012B70470C
:100AA00002F0FF0343EA032242EA024200F024B8C4
:100AB0004FF000020429C0F0128010F0030C00F087
:100AC0001B80CCF1040CBCF1020F18BF00F8012B05
:100AD000A8BF20F8022BA1EB0C0100F00DB85FEAD3
:100AE000C17C24BF00F8012B00F8012B48BF00F89F
:100AF000012B70474FF0000200B51346944696460E
:100B0000203922BFA0E80C50A0E80C50B1F1200120
:100B1000BFF4F7AF090728BFA0E80C5048BF0CC0CE
:100B20005DF804EB890028BF40F8042B08BF70472C
:100B300048BF20F8022B11F0804F18BF00F8012B9E
:100B4000704700000000000030B44FF0013C50F846
:100B5000042B51F8043BCCFA52F4D51A20D1FCB93D
:100B600050F8042B51F8043BCCFA52F4D51A17D1A3
:100B7000B4B950F8042B51F8043BCCFA52F4D51A0E
:100B80000ED16CB950F8042B51F8043BCCFA52F456
:100B9000D51A05D1002CDAD030BC4FF000007047D8
:100BA00029BAB1FA81F111F01801D1F12000844085
:100BB000F2D1CA40CB4012F0FF0213F0FF0330BC69
:100BC000D01A704770477047704700000048704760
:100BD00098040020704710B5FFF7F8FF083010BDEB
:100BE000704770477047704738B504460A46002082
:100BF0006946AFF30080002808BF38BD024600995F
:100C0000204600F0CBFA012038BD012000F0F6BAF2
:100C1000F8B5AFF30080054600200C46102000BF59
:100C20000646A819A0420DD9324669460020AFF306
:100C30000080070008BF00F0E1FA0098A04218BF4A
:100C40000546C419FFF7C7FF05600746F01D20F0F1
:100C500007004619284600F00AF8B44208BFF8BD5C
:100C6000A21B31463868BDE8F84000F097BA002171
:100C70000160C0E901100C3002F082BA1020704708
:100C80002DE9F04705460C46C86820F4201040F4D2
:100C90008000C860800602D5084600F034F9E0689C
:100CA00041F282014FF0FF390140022903D0204672
:100CB00000F0D2F8B5E000F42041B1F5004F0FD1BB
:100CC000C00306D56168E06A884200D808466060C3
:100CD00006E02069E0626060606902F0B9FAA06134
:100CE000A0680022EEB200280DDAE1688B050AD474
:100CF000C043A06041F490302260E0606068411C15
:100D000061600670A5E0E0689046226040F4005003
:100D1000E060206968BB606902F0AEFA012704F167
:100D20002405A0B1A08910F4407F08D0E069FFF746
:100D300065FB206118B1E06840F4006016E0E761EF
:100D40002561E06820F4407040F480600EE0E069C6
:100D5000FFF754FB00282061F1D0E06840F4006008
:100D600010F4407FE06002D140F48070E0602069C0
:100D70006060E06825696FF0010AC1051FD56168F0
:100D8000E06A884200D80846411B04D02246284623
:100D900000F06CF8F0BBE068010203D5E562C4E93D
:100DA000015854E0691CE1626160E16940F48030FF
:100DB000491EC4E9021030462E70BDE8F0870102DA
:100DC00002D500F480320AE06068411C6160067060
:100DD000E0680A2E40F48030E06006D00022E16A2C
:100DE0006068814203D90B4602E00122F7E703461F
:100DF000A7895B1B7F0503D4E7699F4200DDE2B151
:100E0000814200D80146E5620F1AC4E90158002B5F
:100E100009DD00E005E022461946284600F026F8E4
:100E200008B14846C9E747B1A069E5626560C01BE3
:100E3000A061E06840F01000E060E068000208D5C2
:100E40006168A069E562491B08446560A06150467D
:100E5000B3E73046B1E70000C16821F4001141F06A
:100E60008001C16000218160016070472DE9F04779
:100E7000814614460E464FF0FF383248D568576910
:100E8000054209D03846A16902F030FA002811DB8A
:100E90002C48C0430540E5602B463246494638465B
:100EA00002F02AFAA16920F00042B21A1144002887
:100EB000A16103D02046FFF7CFFF4046BDE8F08791
:100EC00070B504460569C06A6168884200D8084662
:100ED000E16821F42011E160C90312D5A84208D0CD
:100EE0002246411B2846FFF7C1FF10B14FF0FF30EB
:100EF00070BD0020E562C4E90150E06820F4803054
:100F0000E060002070BD10B50446C06820F02000ED
:100F1000E060A16AA06988420DD02046FFF7D0FFAB
:100F2000E06820F4405040F01000E060A06AA0614A
:100F30002069E062606044F24001E0688843E0605C
:100F400010BD0000100002002DE9F04704461E46C7
:100F500090460D46C7684C30814602F0E3F8B8076A
:100F600014D0780212D44046B8F5807F09D0B0F58D
:100F7000007F06D0B8F5806F08D1012604F1240562
:100F800006E0701E6FF07F41884201D3012409E022
:100F90002561E6616560E06820F4706040EA080061
:100FA000E0600024484602F03DF92046BDE8F087A5
:100FB00010B565485421FFF79DFD64485421FFF7A3
:100FC00099FD63485421FFF795FD62485E49624AE6
:100FD000624B01605D4810605D4A1A60431C0B65FE
:100FE000511C01650120106557484C3002F0C8F8CB
:100FF00056484C3002F0C4F855484C3002F0C0F866
:10100000574802F0BDF858484F4A56A17844FFF7B8
:101010002BFC20B9544878440A3800F0E8F85448CA
:101020004A4A52A17844FFF71FFC20B9504878443F
:101030000A3800F0DCF84F48454A4CA17844FFF7E5
:1010400013FC20B94B4878440A3800F0D0F840230C
:101050003D48DC0000212246FFF776FF20B14248E0
:101060007844543800F0C3F8384822464023002121
:10107000FFF76AFF20B13E487844543800F0B7F8D3
:101080003348224610230021FFF75EFF002806D0D8
:1010900038487844BDE81040563800F0A8B810BD74
:1010A0002B482DE9F041006D2D4E20F00104304613
:1010B00002F038F8244D4C35284602F033F8224827
:1010C000FFF7F7FA284602F0ADF8284602F038F8A4
:1010D0001E4D4C35284602F025F81C48FFF7E9FA6A
:1010E000284602F09FF8284602F02AF8184D4C35A1
:1010F000284602F017F81648FFF7DBFA284602F0F8
:1011000091F8284602F01CF814E0206D20F001054B
:1011100004F14C00074602F005F82046FFF7C9FA33
:10112000384602F07FF8384602F00AF82046FFF70A
:10113000A0F92C46002CE8D1304602F073F808489C
:1011400001F0FEFFBDE8F0819C030020F0030020C9
:1011500044040020980200209C020020A0020020ED
:10116000A402002072000000DC6400007700000090
:10117000CB640000A464000010B5002000F030F83B
:10118000AFF30080BDE81040012002F05FB8801A84
:101190000844401E491E88431044704770B51446E9
:1011A00005468C464368002B18BF634538BF184678
:1011B000F8D302681044604508D0664660460422B1
:1011C0000821FFF7E4FF811B8446641A2946CCF806
:1011D0000040BDE8704000220CF10400FFF718B990
:1011E00010B500F01FF8BDE8104000F016B810B5BB
:1011F00000F030F8BDE8104000F00FB810B500F076
:1012000043F8BDE8104000F008B810B5FFF7E3FC64
:101210000068BDE8104000F05FB8002801D002F07F
:1012200015B8704710B5002102A000F05AF801204F
:1012300010BD0000534947414252543A2041626E6A
:101240006F726D616C207465726D696E6174696F27
:101250006E00000010B5014602A000F042F8012027
:1012600010BD000053494752545245443A2052653C
:101270006469726563743A2063616E2774206F70CD
:10128000656E3A200000000010B5012805D000214D
:1012900003A000F026F8012010BD09A1F8E7000026
:1012A00053494752544D454D3A204F7574206F664F
:1012B0002068656170206D656D6F727900000000B7
:1012C0003A2048656170206D656D6F727920636F9B
:1012D000727275707465640010B50C3001F030FFE7
:1012E00010BD70B505460C460A2000E06D1C02F0EA
:1012F000DBF835B128780028F8D102E0641C02F050
:10130000D3F814B120780028F8D1BDE870400A2045
:1013100002F0CAB880B582B013460A46844600205F
:101320006FF00041CDF800C003F002F902B080BDBB
:1013300080B54FF6681242F2202142F21C20C2F220
:101340000102C2F20001C2F20000914218BF084639
:101350004FF60041C2F2010118BF1146FEF756FFD9
:1013600080BD0000002070470020704700207047BB
:1013700080B582B04FF0000CCDF800C003F0D8F873
:1013800002B080BD4EF69851CEF2000108600020F8
:10139000886070474EF69C52CEF200021060516099
:1013A000704700007047000080B540F23112C8F26B
:1013B0000102014605F0AAFE80BD000080B540F2A2
:1013C0003812C8F2010205F0A1FE80BD80B540F2DE
:1013D0003312C8F2010205F099FE80BD80B540F2DB
:1013E0003212C8F2010205F091FE80BD80B504F012
:1013F000EDFB05F017FE80BD10B540F6244042F22B
:10140000DC0EC4F20000C2F2000E42F2DA0C0268F6
:10141000DEF80030C2F2000CBCF80000D11A014422
:101420000024B4EB114FCEF8002017D1B1F57A7F2C
:1014300020D31044C01A44F6D351A0F57A70C1F2FB
:101440006201A0FB01124FF618439109CFF6FF731A
:1014500001FB0301012000EB92120CE044F6D35093
:10146000C1F26200A1FB000292094FF47A7002FB04
:10147000101100E0002242F25813C2F20003186873
:10148000ACF800101044186010BD000080B543F6A1
:101490000040C4F20200016841F40071016001687B
:1014A00041F480610160016841F4807101600320B2
:1014B00000F010F80F2000F005F800F009F8002007
:1014C00080BD000080B502F0D9FB002080BD000087
:1014D0007047000080B501F00BFD80BD4EF6105046
:1014E000CEF200000268012922F00402026004D159
:1014F00030BF00BF00BF00BF704740BF20BF20BF4C
:10150000704700002DE9F041002800F08B8043F681
:101510000808C4F202080446D8F8F8030D4600F0A3
:101520000F00884207D288F8F853D8F8F80300F083
:101530000F00A84276D12068810717D5410705D54D
:10154000D8F8001041F4E051C8F80010010705D5A3
:10155000D8F8001041F46041C8F80010D8F8001025
:10156000A26821F0F0011143C8F80010C0073FD174
:10157000D8F8F80300F00F00A84207D988F8F8530C
:10158000D8F8F80300F00F00A8424BD120684107BB
:1015900007D5D8F80010E26821F4E0511143C8F8EB
:1015A0000010000708D5D8F80000216920F4604039
:1015B00040EAC100C8F8000000F0EAF8D8F80010CE
:1015C00047F21442C1F30311C0F60002515C40F22D
:1015D000A82220FA01F140F29830C2F2000000681F
:1015E000C2F200021160FFF76DFF0020BDE8F0813C
:1015F0006068811E022907D258F8081C89015CBF67
:101600000120BDE8F08110E0012807D158F8081C3E
:1016100089035CBF0120BDE8F08106E058F8081C92
:10162000890702D40120BDE8F081D8F8001021F02C
:1016300003010843C8F80000FFF7DEFE064641F24A
:10164000883700BFD8F80000616800F00C00B0EBEC
:10165000810F8DD0FFF7D0FE801BB842F2D9032056
:10166000BDE8F0810F22026043F60802C4F20202D4
:10167000136803F003034360136803F0F00383600F
:10168000136803F4E053C360D2F800C04FF4E05392
:1016900003EADC030361D2F8F80300F00F000860EE
:1016A0007047000040F2A820C2F2000000687047B6
:1016B00043F600010F22C4F2020102600A685203DD
:1016C00006D40A68D20354BF00224FF4803201E0EE
:1016D0004FF4A02242600A6802F00102C2600A6868
:1016E000C2F3C40202610A6F520706D40A6FD2071E
:1016F0000CBF00220122826001E0052282604A6F55
:101700004FF4C02302F0010242610A68D2014FF097
:10171000020258BF012282614A6802F48002C2615B
:101720004A6802F03F0202624A68C2F388124262CB
:101730004A6803EA420202F50032120C82624968EA
:10174000C1F30361C162704780B5FFF7ABFF43F699
:101750000801C4F20201096847F22442C1F3822160
:10176000C0F60002515CC84080BD000080B5FFF7A4
:1017700099FF43F60801C4F20201096847F22442C6
:10178000C1F34231C0F60002515CC84080BD000088
:1017900010B543F60404C4F20204606800F00C01C2
:1017A00042F200400829C0F2F40007D0042918BF13
:1017B00010BD41F20020C0F27A0010BD216801F096
:1017C0003F02216823684902C3F3881105D4A1FBB5
:1017D00000010023FEF757FE06E041F20020C0F2B0
:1017E0007A004843B0FBF2F021680222C1F30141C4
:1017F00002EB4101B0FBF1F010BD00002DE9F0411A
:1018000082B0002800F097800446007843F6000676
:10181000C007C4F2020641D0B06800F00C000428F2
:1018200005D13068800339D56068B8BB83E0B06803
:1018300000F00C00082802D170684002F1D46568FD
:10184000B5F5803F06D03068B5F5A02F06D140F43D
:1018500080203060306840F4803005E020F4803033
:101860003060306820F480203060FFF7C5FD002D27
:10187000054610D03068800310D4FFF7BDFD401B33
:101880006428F7D91AE100BFFFF7B6FD401B6428B2
:101890004FF003004CD830688003F5D420788007DF
:1018A0001AD5B06810F00C0F09D0B06800F00C0029
:1018B000082840F084807068400200F18080306821
:1018C000800702D5E068012835D13068216920F011
:1018D000F80040EAC1003060207800072FD420785B
:1018E000400742D4A56915B3B06800F00C00082881
:1018F00040F09880012D1ED07068E16900F48002EC
:101900008A4218D1216A00F03F028A4213D147F679
:10191000C071626A014091420DD1A16A00F4403267
:101920008A4208D1E16A00F07060884203D1002049
:1019300002B0BDE8F081012002B0BDE8F08160692D
:10194000002840F20000C4F247205AD00121C0F81C
:10195000801EFFF751FD0546706F8007BFD4FFF76B
:101960004BFD401B0228F7D9A8E0306C4FF000086F
:10197000C0000CD4CDF80480306C4FF0010840F06A
:1019800080503064306C00F080500190019847F234
:101990000007C4F200073868C00525D4386840F451
:1019A00080703860FFF728FD054600BF3868C00525
:1019B0001AD4FFF721FD401B0228F7D97EE0E0682A
:1019C000002851D00020C4F2472001210160FFF718
:1019D00013FD0546306880073FF577AFFFF70CFD34
:1019E000401B0228F6D969E0A568012D05D0306FAB
:1019F000052D4DD140F004003067306F40F00100FC
:101A00004CE00021C0F8801EFFF7F6FC054600BF41
:101A1000706F80077FF563AFFFF7EEFC401B022875
:101A2000F6D94BE00027C4F2472700203866FFF7BD
:101A3000E3FC022D05460BD13068800156D5FFF737
:101A4000DBFC401B02284FF00300F5D970E700BF14
:101A5000306880017FF56BAFFFF7CEFC401B02289A
:101A60004FF00300F4D963E70020C4F247200021BF
:101A70000160FFF7C1FC0546306880077FF52CAF99
:101A8000FFF7BAFC401B02284FF00300F4D94FE7E0
:101A900020F001003067306F20F004003067FFF75E
:101AA000ABFC002D054641F2883713D0306F80071C
:101AB00013D4FFF7A1FC401BB842F7D9032002B0B2
:101AC000BDE8F081FFF798FC401BB8424FF00300DF
:101AD0003FF62EAF306F8007F4D4B8F1000F3FF41B
:101AE00001AF306C20F080503064FBE604F11C053F
:101AF0002FCD084340EA8210D9034FF6FF7291437D
:101B0000A1F5803140EA0560084370600120386625
:101B1000FFF772FC044600BF306880013FF507AF55
:101B2000FFF76AFC001B02284FF00300F4D9FFE620
:101B3000002804BF0120704710B5044690F83D000E
:101B400028B9002084F83C00204600F00DF802205F
:101B500084F83D002068211D00F0A4FB012084F8DA
:101B60003D00002010BD000070470000B0B50446E5
:101B7000006844250122C4F2010500F001FC206840
:101B8000A5F14401884203D1296841F4004129604C
:101B9000816801F00701062903D0016841F00101C5
:101BA00001600020B0BD0000002804BF0120704784
:101BB00010B5044690F8390028B9002084F83800A0
:101BC000204600F021F8242084F839002068C168FC
:101BD00021F40051C160204600F046FC20680169F4
:101BE00021F490410161416921F02A014161C168FC
:101BF00041F40051C16000202021E06384F83910D5
:101C000084F83A1010BD000070470000EFF3108018
:101C100000281CBF01207047EFF31180002818BF77
:101C200001207047EFF3108000281CBF012070478F
:101C3000EFF31180002818BF01207047EFF31080E8
:101C400000281CBF01207047EFF31180002818BF47
:101C500001207047EFF3108000281CBF012070475F
:101C6000EFF31180002818BF01207047EFF31080B8
:101C700000281CBF01207047EFF31180002818BF17
:101C800001207047EFF30580002818BF012070473E
:101C9000EFF30580002818BF01207047EFF305809F
:101CA000002818BF01207047EFF30580002818BFF7
:101CB00001207047EFF30580002818BF012070470E
:101CC000EFF31480012121EA0000704791FAA1F19D
:101CD000B1FA81F10068490003228A401040C840EF
:101CE0007047000091FAA1F1B1FA81F1D0F820C05B
:101CF00089000F238B402CEA030302FA01F11943F8
:101D000001627047090A91FAA1F1B1FA81F1D0F8A4
:101D100024C089000F238B402CEA030302FA01F14F
:101D2000194341627047000091FAA1F1B1FA81F1C3
:101D3000D0F800C0490003238B402CEA030302FAC9
:101D400001F119430160704791FAA1F1B1FA81F1F3
:101D5000D0F800C0490003238B402CEA030302FAA9
:101D600001F119430160704743688B4351431943A4
:101D70004160704791FAA1F1B1FA81F1D0F80CC03D
:101D8000490003238B402CEA030302FA01F11943B3
:101D9000C160704791FAA1F1B1FA81F1D0F808C0A1
:101DA000490003238B402CEA030302FA01F1194393
:101DB0008160704747F20000C4F20000006800F044
:101DC00001007047416941F0020141617047000024
:101DD000084470477047000010B50446283001F0F1
:101DE000B7FB58B1E46A4CB1A01C01F00FFC18B16C
:101DF000A468002CF8D10024204610BD0024204601
:101E000010BD000010B584465CF8303F5BB191F81E
:101E100003E0DA7872450BD21A465B686BB1DC7866
:101E20007445F9D305E00022C1E90122C1620DE049
:101E30000022C1E90132083303E0C1E9013200F1B7
:101E40002C031960002A18BF02F1040C2830CCF8CA
:101E5000001001F0B5FB10BDD1E9012C02F108031F
:101E6000002A08BF00F12C03C3F800C0D1E9011219
:101E7000131D002A08BF00F13003196070470000ED
:101E80004EF21000CEF200000068704740F2F840B9
:101E9000C2F200000178012908D1002101704EF63C
:101EA0000450CEF200004FF0806101604EF210004D
:101EB000CEF20000016841F00101016070470000AE
:101EC0004FF0FF307047000058B140F2A821C2F235
:101ED00000010968B1FBF0F0411E0020B0EB116F6A
:101EE00002D04FF0FF3070474EF62352CEF2000280
:101EF000FF2313704EF21002CEF20002062313608D
:101F0000516040F2F841C2F20001906008707047E1
:101F1000B0B54EF62254CEF20004FF202070207897
:101F200080F0FF00B0FA80F0C0F1200500F0D8FF8B
:101F3000A84228BF451CFE20A84004F8030CB0BDF1
:101F40004EF60450CEF200004FF080510160704711
:101F500080B5012000F014F8002818BF80BD00F003
:101F600063F800B180BD01A001F07CFC536574539F
:101F70007973436C6F636B206661696C65640A00FA
:101F800070B592B0002543F640010695C4F20201F7
:101F90000A68022642F080520A600968044601F08D
:101FA00080510691069947F200010695C4F200019E
:101FB0000A6806A866F38F320A60096801F4404196
:101FC00006910699FFF774FB0C9802281AD001209D
:101FD00006904FF4A020002C08BF4FF480300790EB
:101FE0004FF480000D900420C8210C960E90CDE98E
:101FF0000F100820119006A8FFF700FC10B1002078
:1020000012B070BD0F20CDE901064FF4805003954A
:10201000CDE9040501A80321FFF774FAB0FA80F0B6
:10202000400912B070BD0000B0B592B0002443F674
:1020300040000694C4F202000168022541F080517C
:102040000160006800F080500690069847F200009A
:102050000694C4F20000016865F38F3101600068E6
:10206000C82100F440400690069803200690012005
:102070000990102007940A90CDE90C5408200F9184
:1020800004210E90CDE9101006A8FFF7B7FB70B938
:102090000F20CDE901054FF480500394CDE90404ED
:1020A00001A80321FFF72EFAB0FA80F04409204678
:1020B00012B0B0BD80B582B0072800F28880DFE89A
:1020C00000F0042E44187086865A0020019043F6D2
:1020D0003000C4F20200016841F0010101600068B3
:1020E00000F00100019001980020C4F2020002B04B
:1020F00080BD0020019043F63000C4F20200016868
:1021000041F008010160006800F0080001900198AA
:102110000020C4F2020000F5406002B080BD002043
:10212000019043F63000C4F20200016841F0020160
:102130000160006800F00200019001980020C4F2E4
:10214000020000F5806002B080BD0020019043F6DF
:102150003000C4F20200016841F00401016000682F
:1021600000F00400019001980020C4F2020000F584
:10217000006002B080BD0020019043F63000C4F240
:102180000200016841F080010160006800F08000F9
:10219000019001980020C4F2020000F5E05002B066
:1021A00080BD0020019043F63000C4F202000168B7
:1021B00041F010010160006800F0100001900198EA
:1021C0000020C4F2020000F5805002B080BD01A0E2
:1021D00001F048FB50696E6D6170206572726F721C
:1021E0003A2077726F6E6720706F7274206E756D13
:1021F0006265722E00000000C0064FF0200058BF3C
:102200006020704743F60400C4F20200416801F008
:102210000C0242F20041082AC0F2F40106D0042A5E
:102220001DD141F20021C0F27A0118E00268036872
:10223000520241F20022C0F27A0258BF0A460168F7
:1022400003F03F03B2FBF3F2C1F38811036851437B
:10225000C3F30142022303EB4202B1FBF2F140F26D
:10226000A822C2F200021160406847F21441C0F394
:102270000310C0F60001085C116821FA00F010603C
:10228000704700004EF68850CEF20000016841F41D
:102290007001016040F20001C0F6000140F8801CAE
:1022A0007047000010B540F2FF7E0368C4F2000ED4
:1022B00040F2000C7045C4F2010C0ADD40F6000249
:1022C000C4F2000290420DD060450BD040F60042AF
:1022D00004E0B0F1804F05D040F20042C4F20002A9
:1022E000904203D14A6823F0700313434FF6FF7204
:1022F000C4F20002904209DC704512DCB0F1804F5C
:1023000026D040F20042C4F200021FE044F2FF3245
:10231000C4F2010290420FDC604519D044F2000281
:1023200012E040F60002C4F20002904210D040F6E3
:102330000042C4F2000209E044F60002C4F20102C5
:10234000904205D044F20042C4F20102904203D10F
:10235000CA6823F44073134323F080024B69D1F819
:1023600000E08C681A4360450260C462C0F828E04F
:1023700002D10969CCF830100121416110BD000083
:1023800080B501F01F014FF0010CD0F820E00CFAED
:1023900001F32EEA03030362036A02FA01F119430F
:1023A000016280BD7047000080B5930706D4D20754
:1023B00000F1280015D101F09FF880BD836A02F07A
:1023C000010203EA010040EA020C8842184618BFE5
:1023D0000020002A08BF1846BCF1000F08BF604665
:1023E00080BD01F075F880BD10B540F2F42CC2F24A
:1023F000000CDCF84420002A134618BF012319D032
:1024000014698C4202D94FF0000E0AE09646D26859
:10241000091B002A134618BF01230DD01469A142DD
:10242000F4D2C0E902E201614BB113699060591A1C
:10243000116104E04FF0000EC0E902E201610EF10B
:102440000C01BEF1000F08BF0CF14401086010BD83
:10245000C16800291CBF82688A60C06840F2F4210C
:10246000C2F2000148647047B0B50546006805F146
:1024700008030ECB0469194324F44054224302613B
:102480006A69EB691143C26849F20C641943A243BB
:102490001143C1604169AA6921F44071114341614E
:1024A00041F20041B3F5004F40F48060C4F20101F5
:1024B00024D1884246D1FFF759F96B681921A0FB56
:1024C00001015A00DB0FFDF7DEFF48F21F51C5F294
:1024D000EB11A0FB01235A096FF0630302FB030019
:1024E000322303EBC000A0FB01014FF4F87000EAB7
:1024F000111000EB0210C1F3421167E0884244D191
:10250000FFF734F96B681921A0FB01019A009B0FBA
:10251000FDF7B9FF48F21F51C5F2EB11A0FB0123F3
:102520005A096FF0630302FB0300322303EB001030
:10253000A0FB0101F02000EA511000EB0210C1F3F2
:10254000431143E0FFF700F96B681921A0FB01017B
:102550005A00DB0FFDF797FF48F21F51C5F2EB1150
:10256000A0FB01235A096FF0630302FB030032232F
:1025700003EBC000A0FB01014FF4F87000EA11105A
:1025800000EB0210C1F3421120E0FFF7DDF86B68A9
:102590001921A0FB01019A009B0FFDF774FF48F27F
:1025A0001F51C5F2EB11A0FB01235A096FF0630321
:1025B00002FB0300322303EB0010A0FB0101F0201B
:1025C00000EA511000EB0210C1F343112A680843DE
:1025D0009060B0BD006870470160704708230268D2
:1025E000002908BF0C23C05808BF120402607047BE
:1025F00010B5044600F0BEF900B110BD204600F051
:10260000BBF9002818BF10BD00F02AF840F2B850FE
:10261000C2F2000010BD000080B501F059FC002896
:1026200018BF012080BD000080B542F2E000C2F278
:1026300000000068002808BF80BD4FF0FF3102F0A5
:10264000D3FC80BD80B542F2E000C2F20000006819
:10265000002808BF80BD4FF0FF3102F0C5FC80BDEF
:1026600080B540F23C50C2F200000078BFF35F8FAB
:10267000C00700D080BD40F23C50C2F2000000F024
:1026800065FC002808BF80BD40F2B85047F2CC413D
:10269000C2F20000C0F600014FF4165200F0B8F884
:1026A00040F23C50C2F2000000F084FC80BD00000B
:1026B00080B542F2E000C2F200000068002818BFB6
:1026C00002F0DCFC80BD000080B542F2E000C2F206
:1026D00000000068002818BF02F0D0FC80BD000098
:1026E00080B501F03DF803F08BFE00F055F803F0E3
:1026F000BBFE01F077F880BDB0B50C464542FDF752
:1027000032FE056040F2AC20C2F20000002140F829
:102710002410B0BD810707D441074FBF0121010735
:10272000092202EAE17100E0022110F00C0F00F032
:10273000040018BF01F5007141EA00207047000055
:1027400010B540F26050C2F2000000F083FB00F0D0
:10275000EBFA40F2AC200324C2F2000050F824103F
:1027600019B10134102CF9D11024102C06D3FDF727
:10277000FAFD182101604FF0FF3403E04FF0FF3104
:1027800040F8241040F26050C2F2000000F062FBFA
:1027900000F0ECFA204610BD80B503F05DFE80BD70
:1027A000D0E900010968084018BF01207047000007
:1027B000002A04BF0020704710B542F20410C2F294
:1027C00000000C4603F00EFD2070012010BD00003B
:1027D0006FF01C00704700006FF01500704700009C
:1027E00000207047F0B581B0144662B142F2041582
:1027F0004E1EC2F20005274616F8011F284603F0B8
:10280000C7FD013FF8D1204601B0F0BD012070475F
:10281000F0B581B015460E46044600F087F842F246
:102820005011C2F2000147F22C400968C0F60000C6
:102830000830206059B942F20417C2F20007384646
:10284000314603F0EFFC3846294603F0BFFC204632
:1028500001B0F0BD80B500F073F800F035FB80BD2D
:1028600080B5FFF79DFF80BD80B5FFF7B7FE80BD47
:1028700010B504460020C4E90000C4E90200C4E920
:102880000400A061204601F0BBF8204610BD000006
:1028900010B50446FFF7E8FF204610BD80B5FFF7EE
:1028A000DFFF80BD6FF01500704700006FF018006B
:1028B000002918BF002070476FF015007047000016
:1028C00070B504460068002103692046012298473C
:1028D000054600280DD42068002103692046022205
:1028E0009847216806460B692046294600229847EA
:1028F0003546284670BD00000020704780B501684D
:1029000001220B690021984780BD0000704700003C
:102910000020704780B5016800220B6900219847AC
:1029200080BD00006FF015007047000047F27C4149
:10293000C0F600010831016070470000FEDE0000B3
:1029400070470000B0B50F28C4BF0020B0BD40F2F2
:10295000AC25C2F20005044655F82000022C07DC25
:10296000411C18BFB0BD2046FFF742FE45F82400C9
:10297000B0BD000000207047002070477047000085
:1029800080B500F077F880BD704700004FF0FF3051
:102990007047000080B500F065FA80BD10B50446B0
:1029A00000F014F8640028BF4440204610BD000029
:1029B00090FAA0F07047000010B5044600F036F819
:1029C000640828BF4440204610BD000080B541F691
:1029D000B750C0F2C140FFF7D1FF80BD80B511B143
:1029E000FFF7CEFF80BDFFF7C9FF80BDB0B505463C
:1029F0002A7A0C460868697A1AB141B9FFF7C0FF14
:102A000005E011B100F036F801E0FFF7BDFF69689D
:102A100081EA0005FFF7BAFF05EA00010020216006
:102A2000B0BD0000026800200A60704780B541F622
:102A3000B750C0F2C140FFF7BBFFFFF7A5FF80BD55
:102A4000F0B581B00F4619461C4616460546FFF7FD
:102A5000E9FF08B101B0F0BD2846394632462346A9
:102A6000FFF798FF0028F5D128462146FFF7BEFF63
:102A700001B0F0BD90FAA0F070470000F0B581B051
:102A8000069F0646084619461C461546FFF7A6FF50
:102A9000C6E9000534723046777201B0F0BD00001F
:102AA00080B5FFF7CDFF80BD80B582B0DDF810C0E6
:102AB000CDF800C0FFF7E2FF02B080BD007B704799
:102AC000F0B581B0044640F28C50C2F200000E46D0
:102AD00000F0C0F900F028F940F28850C2F200007E
:102AE000056800E06D68BDB1AF68002FFAD03846C8
:102AF000FDF740FFB042F5D1384621463246FDF79A
:102B00000DFF0028EED140F28C50C2F2000000F020
:102B1000A1F900F02BF910E0072E05D10FA02146F6
:102B20000722FDF7FBFE58B140F28C50C2F20000C4
:102B300000F090F900F01AF90025284601B0F0BD28
:102B400040F28C50C2F2000000F084F900F00EF95F
:102B500040F2B450C2F200000568EEE764656661B9
:102B6000756C740010B5044600F00AF8002804BF24
:102B7000002010BD6068002818BF043810BD000098
:102B800080B5406830B1FFF799FF0138B0FA80F0A6
:102B9000400980BD002080BD10B5044600F010F84B
:102BA000002804BF002010BD6068002818BF04384A
:102BB00010BD00004068002818BF012070470000C9
:102BC00080B5406828B1FFF779FFB0FA80F040097E
:102BD00080BD002080BD00000068704770B50E46C3
:102BE00000250446C0E9005510A13046FDF788FED7
:102BF0003044206001E000BF59B122680021137801
:102C0000002BF9D001322F2B1CBF0135012122608E
:102C1000F2E735B12946FFF753FF014620466160D0
:102C200070BD03A005A12A2201F036FA2F00000092
:102C30006C656E20213D2030000000002E5C6D622E
:102C400065642D6F735C706C6174666F726D5C731C
:102C50006F757263655C46696C65506174682E635C
:102C60007070000080B502F009F9002808BF80BD2F
:102C700047F6592047F66821C0F60000C0F600016B
:102C8000E12201F009FA000010B584B004460020EA
:102C900020620DA0002918BF08460090201D029058
:102CA0001C2003900B200190684602F0CFF92060B1
:102CB00010B901F005FC08B104B010BD09A012A1C3
:102CC0003D2201F0E9F900BF6170706C69636174C5
:102CD000696F6E5F756E6E616D65645F6D7574654D
:102CE000780000005F6964207C7C206D6265645F11
:102CF0006765745F6572726F725F696E5F70726F25
:102D000067726573732829002E5C6D6265642D6F90
:102D1000735C72746F735C736F757263655C4D7511
:102D20007465782E63707000B0B582B00546006897
:102D30004FF0FF3102F058F928B1044601F0C0FB12
:102D400030B102B0B0BD286A0130286202B0B0BD17
:102D500047F6EC0140F215100025C0F60001C8F25C
:102D6000020022460023009501F0F0F910B582B070
:102D7000026A0168013A0262084602F07FF918B15E
:102D8000044601F09DFB08B102B010BD40F21710DF
:102D90004FF0000C04A1C8F2020022460023CDF837
:102DA00000C001F0D3F900BF4D7574657820756ED1
:102DB0006C6F636B206661696C65640010B50021FF
:102DC0000446FFF761FF204610BD0000B0B50D4678
:102DD000C80703D10024E80615D50BE042F2041021
:102DE000C2F2000003F0E8FA0446002818BF0124EC
:102DF000E80608D542F20410C2F2000003F0F4FA2B
:102E0000002818BF10342046B0BD0000B0B50446FD
:102E1000FFF7E0FB054668B9FFF706FC25683DB9FA
:102E2000251D2846FFF7CAFF20462946FFF7D4FB99
:102E3000FFF73EFC201D854204BF2846B0BD47F287
:102E4000C05047F2E351C0F60000C0F600018B22EB
:102E500001F022F980B5FFF7D9FF80BD012070474E
:102E6000112070472DE9F041007A15461A689846FE
:102E70000E4678B1FDB10027F05D6FF007044240C7
:102E80001046FFF799FD01340246F9D30137AF42EE
:102E9000F2D110E07DB10027F05D6FF0070482EA07
:102EA000006200BF1046FFF779FD01340246F9D3F6
:102EB0000137AF42F0D10020C8F80020BDE8F08112
:102EC000C0E900237047000080B5FDF7D2FA80BD4D
:102ED0004EF20410CEF200004FF4802101607047E2
:102EE0004EF60C50CEF200000068C0F3022070478E
:102EF0004EF60C51CEF200010A684FF6FF031A405D
:102F000060F30A2242F0806040F0FD700860704774
:102F10004EF60850CEF20000006847F2D501C0F628
:102F20000001C0F8081170474EF60C50BFF34F8FE8
:102F3000CEF200000168042201F4E061C0F2FA520E
:102F400011430160BFF34F8F00BFFDE710B504468A
:102F5000007800F00300012804BF002010BDFFF737
:102F600071FB207810F0030105D0012908D1FFF78B
:102F7000ABFB002010BD40F002002070012010BD0E
:102F800047F6C00103A0C0F6000140F28E6201F0D6
:102F900083F800BF2867756172642026204358417A
:102FA0005F47554152445F4D41534B29203D3D20E1
:102FB0003000000080B5017801F00302022A06D13A
:102FC00001F0FC0101310170FFF77EFB80BD47F687
:102FD000890047F6C001C0F60000C0F6000140F2CB
:102FE000976201F059F8000001A000F069FA00BFF3
:102FF00050757265207669727475616C2066756EA5
:103000006374696F6E2063616C6C656421000000FD
:1030100041F2D0704FF60041C2F20000C2F201014D
:10302000016041F2CC7040F20042C2F20000C0F2F6
:103030000002026041F2C47042F21C22C2F200009F
:10304000C2F200020260881A41F2C071C2F20001AD
:10305000086001F057FA00F0F1F801F01BFE0000E3
:1030600010B502F0DFFDE0B1002402F0AFFD014633
:1030700041F61400C2F2000050F82420002A08BFD4
:1030800040F8241050F824208A4203D00134042C44
:10309000F2D10424042C05D10420042402F006F803
:1030A00000E0042441F6240104EB4400C2F20001D4
:1030B00001EB401010BD000080B500F019F880BD94
:1030C000F0B581B01E4614460F46054600F074FC6C
:1030D000781C0BD02846314600F0D6FC284601214A
:1030E00000F05EFC2846214600F096FC01B0F0BDE1
:1030F00042F220204FF668114FF60042C2F2000063
:10310000C2F20101C2F20102884218BF0A4642F22D
:103110001C21C2F2000118BF0146C81D20F00700A3
:103120007047000010B5044602F07CFD002808BF7F
:1031300010BD20684FF0FF3101F056FF10BD0000B8
:10314000B0B5044600F00CFB216841F2E4520020C7
:10315000C2F2000213588B4204D004302028F9D167
:10316000002500E0151800F03DFB206801F056FF37
:1031700015B100202860B0BD2046FDF77AF9B0BD3A
:1031800070B584B00446002621A0CDE90266009007
:103190000B20019000F0E4FA41F2E455C2F2000580
:1031A000286838B11C3E16F1E00005F10405F7D19E
:1031B00000250AE04FF0FF3028601C20039041F208
:1031C0000460C2F20000801B029000F00BFB35B1DE
:1031D000684601F03BFF20602860206858B91C2039
:1031E00003901C20FDF70AF9029038B1684601F0FF
:1031F0002DFF206020B1012004B070BD042000E04C
:103200000520214601F052FF002004B070BD00BF30
:1032100041524D20746F6F6C636861696E206D75EB
:103220007465780010B5044602F0FCFC002808BF65
:1032300010BD206801F022FF10BD000080B501F034
:1032400049FE80BD80B500F0EDF980BDFEE70000CD
:1032500010B5FFF777FB40B10168896A8847B0F184
:10326000FF3FC8BF10BD444200E00924FDF77BF8D2
:1032700004604FF0FF3010BD80B500F029FE80BD26
:10328000B0B50D4647F2EC41C0F600010446FDF72B
:103290005BFCB0B147F2F341C0F600012046FDF7F8
:1032A00053FC88B147F2E441C0F600012046FDF727
:1032B0004BFC60B1207840280FD1D4F80140204663
:1032C000B0BD0020002404E00120012401E0022020
:1032D0000224FFF737FB2046B0BD2846FFF71AFA55
:1032E0000146204601F080FDB0BD000080B50022FF
:1032F00000F09EFE80BD00002DE9F04F81B09046A9
:103300000E46824600F07EFA002840F08A8000F0E7
:10331000FBF9002800F08580B8F1FF3F44DD5046FE
:10332000FFF77AF9002844D0B8F1010F46DB40F2EC
:103330005050C2F2000000EB0A0900254846002761
:1033400009E04FF0010B00BFBBF1000F39D170193C
:103350000135A8452FD004780D2CF8D0705D0A28CF
:10336000F5D1BD420EDDF119EA1B504603F0C8FF4E
:103370000028E6D40744AF4202DA4FF0050BE3E73A
:1033800089F8004050462CA101224FF0010B03F0B8
:10339000B7FF0028D8D40FBF4FF0050B0D2089F8D8
:1033A00000004FF0000BCFE7FCF7DDFF16210160B6
:1033B00032E000270CE04FF0020B02E04FF0020B6E
:1033C0000027BBF1020018BF5846052818D018BBCB
:1033D000474515DAF119A8EB0702504603F090FFB4
:1033E000002816D40744012F08DBB81910F8010C87
:1033F00040F25051C2F2000101F80A00012058B118
:10340000B7F1FF3FC8BFA8EB0707384601B0BDE8DA
:10341000F08F00200028F3D14FF0FF3001B0BDE85D
:10342000F08F40F22F10002704A1C8F2010052468D
:103430000023009700F08AFE0D0000004572726FB5
:1034400072202D2077726974696E6720746F206115
:103450002066696C6520696E20616E204953522098
:103460006F7220637269746963616C207365637441
:10347000696F6E0D0A000000002382420AD9914252
:103480004FF0000228BF0122814238BF012343EAE6
:103490000200704781424FF0000038BF0120914286
:1034A00028BF01231840704780B582B08DF807000F
:1034B0000DF107010120012203F022FF02B080BDBF
:1034C000FDF75AFEEFF31080012121EA000070475A
:1034D00010B550E8002F02EA01038B4203D0BFF37E
:1034E0002F8F002205E022EA010340E8003404B1F6
:1034F000EFE7104610BD000010B550E8002F0A425B
:1035000003D1BFF32F8F002205E022EA010340E838
:10351000003404B1F1E7104610BD000040F2F42081
:10352000C2F200005630D0E85F1F11B9BFF32F8FF1
:1035300004E04A1EC0E8532F03B1F4E788B2704795
:1035400050E8001F4A1E40E8002303B1F8E7704727
:1035500050E8001F11B9BFF32F8F04E04A1E40E866
:10356000002303B1F4E708467047000010B5D0E827
:103570005F2F531C994200D80023C0E8543F04B188
:10358000F5E790B210BD000010B540F2F421C2F290
:1035900000015631D1E85F2F904202D8BFF32F8F40
:1035A00004E0531CC1E8543F04B1F3E790B210BDEE
:1035B00050E8001F4A1C40E8002303B1F8E77047B9
:1035C00050E8001F4A1C40E8002303B1F8E77047A9
:1035D00050E8001F11B9BFF32F8F04E00A6840E8DC
:1035E000002303B1F4E708467047000010B50268F5
:1035F0000A60BFF35F8F50E8002F0B689342F6D14B
:1036000040E8001404B1F2E710BD00000121D0E849
:103610004F2FC0E8431F03B1F9E7D0B27047000055
:103620007047000010B50446FFF78CF940F2AC215A
:10363000C2F20001002241F8242048B10168496922
:103640008847B0F1FF3FC4BF002010BD444200E0F6
:103650000924FCF788FE04604FF0FF3010BD000025
:10366000F0B581B04468D4E90C10D4E90656521A7A
:10367000276963EB0001A81A76EB01003DD3D4F86B
:1036800008C044F24020C0F20F00844503D19742A5
:1036900028BF174631E094F83B3044F23F20C0F297
:1036A0000F00E3B1C3F12006994022FA06F6314338
:1036B000B3F1200658BF02FA06F102FA03F258BF2E
:1036C0000022801844F2402241F10001C0F20F02B2
:1036D0000023FCF7D8FE874228BF07460DE001FB18
:1036E0000CF1E2FB0C0144F24022C0F20F02002375
:1036F000FCF7C9FE874228BF0746206AE1683844C4
:10370000084001B0F0BD0000EFF31080012121EA74
:1037100000007047D0E85F2F521AC0E8532F002BEB
:10372000F8D190B270470000D0E84F2FC0E8431F97
:10373000D0B27047012100BFD0E84F2FC0E8431F2F
:10374000002BF9D102F0010070470000D0E85F2F94
:103750005218C0E8532F002BF8D190B270470000E8
:1037600080B500F0A5F941F2E860C2F200000168FE
:1037700001311CBF016080BD02A00FA13F2200F0FB
:103780008BFC00BF637269746963616C5F7365630E
:1037900074696F6E5F7265656E7472616E63795F76
:1037A000636F756E746572203C2055494E543332F8
:1037B0005F4D4158000000002E5C6D6265642D6F06
:1037C000735C706C6174666F726D5C736F7572633D
:1037D000655C6D6265645F637269746963616C2EB8
:1037E0006300000080B541F2E860C2F200000168A9
:1037F000002908BF80BD0139016008BF00F06EF9E3
:1038000080BD0000EFF30580002818BF012070473D
:1038100083B080B581B003A80EC040F2444003AA33
:10382000C2F2000004A10092FDF774FD01B0BDE8F2
:10383000804003B0704700BF43616E6E6F742069B3
:103840006E697469616C697A6520554152542077BC
:1038500069746820626175642072617465202575E1
:103860000A00000083B081B0044601A80EC041F2F6
:10387000BC70C2F2000001217546FFF755FFA0B9E8
:1038800040F20010C8F2FF0000212A4600F072F951
:1038900007A00021002202F025FB01A9204600918B
:1038A00000F078FD08A000F049FD00F00FFE00BF19
:1038B000466174616C2052756E2D74696D6520656A
:1038C00072726F72000000000A00000010F1060F13
:1038D00031BF03A004A101EB80008069704700BFE5
:1038E000556E6B6E6F776E00987900082E7A00081F
:1038F00088790008407900080E790008717900087D
:10390000044640F2F030C2F20000FCF730FF40F213
:103910004440C2F20000FCF72AFF012000F008F842
:10392000022000F005F804B9FEE700F0D9FB000022
:1039300010B5FFF707F848B1016889698847B0F109
:10394000FF3FC4BF002010BD444200E00924FCF743
:103950000AFD04604FF0FF3010BD000041F200414D
:10396000C4F2010188420FD041F20001C4F201010A
:1039700088420CD044F20041C4F20001884214BFD6
:10398000FF20012040B27047022040B27047002063
:1039900040B2704747F6C420C0F6000070470000F0
:1039A00080B50A460029D0E9053118BF0122184622
:1039B000FEF7BAF980BD000070B50446481C2182AC
:1039C00008BF70BDC1F303100D46FEF773FB06463A
:1039D000284600F027F8218A206001F00F0047F206
:1039E0001C51C0F6000151F82000C4E9056006F141
:1039F0001000606006F11800C4E9020070BD00000C
:103A000080B5002200F002F880BD000080B51346AA
:103A10000022FFF755FB80BD80B5B0F9100002F021
:103A200071F980BD10B5044601300AD020464FF42C
:103A3000707102F007F904F00F00012101FA00F0A3
:103A400010BD02A006A1762200F026FB70696E2050
:103A5000213D202850696E4E616D65294E4300005E
:103A60002E5C6D6265642D6F735C74617267657442
:103A7000735C5441524745545F53544D5C677069C1
:103A80006F5F6170692E630008230268002908BF18
:103A90000C23C05808BF1204026070470823026854
:103AA000002908BF0C23C05808BF120402607047E9
:103AB00080B5FFF707FDEFF3108172B642F20011F7
:103AC000C2F200010A78002A18BF80BD41F2E46208
:103AD000C2F2000210700120087080BD80B5FFF7AF
:103AE000F1FC78B941F2E461C2F20001097842F2D6
:103AF0000010C2F2000000220029027008BF80BD41
:103B000062B680BD02A009A1362200F0C5FA00BF4E
:103B1000216172655F696E74657272757074735F2E
:103B2000656E61626C656428290000002E5C6D6220
:103B300065642D6F735C68616C5C6D6265645F6366
:103B40007269746963616C5F73656374696F6E5FDA
:103B50006170692E6300000080B5FFF701FEFEF77B
:103B600029F90121002818BF0120FDF7B7FCFFF754
:103B700039FE80BD2DE9F04790B00C460646B0F105
:103B8000FF3F68464FF040011546C4BF40F20116A2
:103B9000C8F2FF06FCF7AEFF30460096029400F034
:103BA000B3FB18B1E16B606B019101E068460195D0
:103BB00040F2F421C2F20001496907900391CA6BF7
:103BC000D1E90C01CDE904210690FFF7C9FD41F2CE
:103BD000F060C2F2000001684A1C0260D9B941F2EB
:103BE00038709DE84E00C2F20000DDE90454DDE9C2
:103BF00006CE0DF1200A80E84E000CAE9AE8800750
:103C00004ECEC0E90454C0E906CE00F1200C30309D
:103C10008CE880074EC041F27C709DE88E00C2F2B5
:103C200000000DF1180E0DF1240A80E88E000CAF93
:103C3000DDE904659EE810509AE800078ECFC0E9E0
:103C40000465C0E9064CC0E908E8C0E90A9AC0E981
:103C50000C1241F2F461C2F2000109688363C76388
:103C600041F27C70C2F2000009B1884701E000F027
:103C7000FDFAFFF7B7FD10B0BDE8F08710B588B0CA
:103C800003A802A9FDF7EEFCFDF75EFD002143F657
:103C9000200202900191C4F20202136A40F2FC4435
:103CA00043F008031362136AC2F2000403F008032E
:103CB0000193019B136843F008031360136823F01A
:103CC00008031360069A4FF0FF33002A18BF012241
:103CD00090404DF68362C4F21B32A0FB020240F614
:103CE0000040C4F2000003EB9242C4E90002204607
:103CF000C4E90213C4E90411A161FDF719FFFFF73C
:103D000007F9FFF7E5F820460021FDF72FFF2068AF
:103D1000C16821F00201C16008B010BD10B5D0E942
:103D200000C342F25C14D0E9022EC2F20004014644
:103D300004EB83109B0144F803C0C0E9012ED1E9D4
:103D40000423C0E903230A6A0023C0E90623C384CD
:103D50008384C3854C8B4FF6FF729442838504D1D4
:103D600008214161FDF720FF10BD098B914200F150
:103D700014010CBF04220C220A60FDF715FF10BDD0
:103D80002DE9F04F81B00446406890F8381011B129
:103D900001B0BDE8F08F90F83A000028F8D1206813
:103DA000006880472068C06980470568002D50D0B2
:103DB0001F260121F2B201FA02F2954203D0013E20
:103DC0003206F7D100264768381F1D2849D207213F
:103DD00001FA00FB44F24020C0F20F0000212A4605
:103DE000EBFB0021501E61F100012A4600234FF039
:103DF000000AFCF748FB80468946D4E90010496870
:103E0000C0F800A0C0F804A088476168B7F120029C
:103E100008624FF0FF3000FA07F081F83B6058BFAE
:103E20000020C043C1E902500120C1F810B0C1E92F
:103E30000689C1E90AAAC1E90CAA0887204681F8C7
:103E40003AA003F079F9204602F05AF901B0BDE832
:103E5000F08F40F20510C8F204000930002715A1C8
:103E600005E040F20510002703A1C8F2040000227B
:103E70000023009700F06AF95469636B6572206E45
:103E8000756D626572206F662062697420697320A7
:103E900067726561746572207468616E20333220C8
:103EA0006F72206C657373207468616E20342062B9
:103EB000697473005469636B65722066726571750D
:103EC000656E6379206973207A65726F0000000067
:103ED00010B5FEF737FD40B10168C9698847B0F1F8
:103EE000FF3FC8BF10BD444200E00924FCF73BFA85
:103EF0000460002010BD0000F0B581B01F461446DC
:103F00000E4601F06DFA0546D8B1D7B9CEB1287882
:103F1000FA2816D12846FDF75FFFE0B16A6A074626
:103F200000F10C013046FCF744FD002C1CBFF87872
:103F300020703846FD6001F019FB01F051FB0024B0
:103F400006E028466FF003016FF00304FDF736FA30
:103F5000204601B0F0BD6FF00204F9E72DE9F04111
:103F60001D4690460C4601F03BFA0646F8B1F5B9FD
:103F7000ECB13078FA281AD106F10C0001F0DAF928
:103F8000F8B1726A05460C302146FCF712FDF920A3
:103F9000287000272846AF7085F80380C5E90146E0
:103FA00001F0E4FA01F01CFB3846BDE8F081304630
:103FB0006FF003016FF00307FDF700FA3846BDE824
:103FC000F0816FF00200BDE8F0810000B0B540F272
:103FD000F425C2F20005B5F85440FFF79FFA50B13E
:103FE00005F15A002146FFF7C1FAE96D51F82000AA
:103FF00001F0C0FAB0BD0020B0BD000070B540F2C5
:10400000F426C2F20006B6F8545004462846FFF7DC
:10401000BBFAA84224BF002070BD06F15800294613
:10402000FFF7A4FAF16D41F82040012070BD0000B7
:10403000B0B514460D46FEF785FC50B10168224626
:104040000B6929469847B0F1FF3FC8BFB0BD444255
:1040500000E00924FCF787F904604FF0FF30B0BDA1
:104060008AB003AC20460521FEF702FC6D4600BF76
:104070002046FEF713FCB0FA80F041092046FEF717
:1040800007FC28464FF4FA720023FEF719FF009848
:10409000FEF7E8FDECE7000082B00B46014640F277
:1040A00044109446C8F2FF000022CDF800C000F092
:1040B0004DF800004EF6085CCEF2000CDCF8001063
:1040C00000224FF0005300BF51F8220043F82200B5
:1040D0000132662AF8D14FF00051CCF80010704739
:1040E00088B041F6802444F6F018C0F20604C0F20D
:1040F0000208FFF735FB01AE30460521FFF780FCD3
:10410000002700BF30460121FFF7C8FC404603F0FE
:10411000E7F830460021FFF7C1FC404603F0E0F825
:104120000137042FEED1042530460121FFF7B6FCFC
:10413000204603F0D5F8304600210027FFF7AEFCFB
:10414000204603F0CDF8013DEED1DBE7044641F215
:10415000BC708A46C2F20000012175469846174697
:104160000126FFF7E1FA58B9DDF8009020463946FC
:104170002A46FFF7FFFC504641464A4601F0B2FE90
:1041800040F29815C2F2000505F180003C2100F0D4
:10419000F7FDD5F8BC1041F27C748142C2F20004F4
:1041A0004FF00000D5F8B42008BF561CC4E90D60DC
:1041B00020463C2100F0E4FDE063FFF7D1FAD4E9AA
:1041C0000001C5F88000A068C5F88410E168C5F852
:1041D00088002069C5F88C106169C5F89000A06955
:1041E000C5F89410E169C5F89800206AC5F89C10DC
:1041F000616AC5F8A000A06AC5F8A410E16AC5F814
:10420000A800206BC5F8AC10616BC5E92C01D4E99E
:104210000E01C5E92E01FFF7E5FA07A000F07EF8D0
:10422000D5F8B410012905DB47F2FF60C0F60000A5
:1042300000F074F802F0F4FE0A3D205379737465BF
:104240006D2077696C6C206265207265626F6F7497
:1042500065642064756520746F20612066617461F7
:104260006C206572726F72203D0A0000704700007A
:1042700070B540F29815C2F20005D5F88000B0F193
:10428000FF3F01DD002070BD05F1800420463C2188
:1042900000F076FDD5F8BC108142F3D1D5F8B80016
:1042A0000028EFD141F27970C2F2000001260670B9
:1042B000204600F06DF8D5F8B4000128E2DB204676
:1042C0003C21C5F8B86000F05BFDD5F8B410C5F826
:1042D000BC000129D6DB00F0F9F8000010B541F26E
:1042E0007C74C2F20004206800F00EF848B1A068A7
:1042F00038B190F84C00012100F0080081EAD000AC
:1043000010BD002010BD00004FF6C361C7F600715C
:1043100001440020042938BF0120704783B080B5D4
:1043200081B00DF10C0C8CE80E0003A9009100F097
:1043300031F801B0BDE8804003B07047F0B581B0FE
:104340000446022021460022002702F0D9FFFFF791
:1043500007FA0D260DF1030508E000BF98B1022011
:104360002146012202F0CCFF14F8017B20780A28B4
:10437000F4D10D2FF3D00220294601228DF80360DD
:1043800002F0BEFFEBE7FFF72DFA01B0F0BD000031
:104390007047000080B5A2B00B46024601A88421F8
:1043A000FCF7E6FF842808D300218DF8871042F639
:1043B0002E61C0F62E21CDF88310012802DB01A862
:1043C000FFF7BCFF22B080BD82B041F2BC75C2F2E3
:1043D00000050C46074628460121FFF7A5F94FF0D6
:1043E00000084FF0000610BB40F23D1614A0C8F2C2
:1043F000FF06FFF793FFA7F110004FF0FF3101EB2D
:104400003011022906D84FEA30121BA050F82100C3
:10441000164400E015A0FFF781FF1AA0FFF77EFF0A
:1044200001F0AEFC1AA0FFF779FF0020287020A150
:10443000304622460023CDF80080FFF787FE00BFFC
:104440000A2B2B204D6265644F53204661756C74B6
:104450002048616E646C6572202B2B0A0A466175D8
:104460006C74547970653A200000000048617264F1
:104470004661756C74000000C2760008DC760008A6
:10448000D17600080A0A436F6E746578743A0000AA
:104490000A0A2D2D204D6265644F53204661756CCC
:1044A000742048616E646C6572202D2D0A0A00002C
:1044B0004661756C7420657863657074696F6E0011
:1044C00041F2BC70C2F200000078704741F278708F
:1044D000C2F20000FFF72EF930B1FFF741F9BFF348
:1044E0004F8F00BF20BFFDE7FFF78CF908B1FFF742
:1044F000F7FDFFF709F9002808BFFFF7F1FD0120DC
:10450000FFF7FEF980B54EF20800CEF20000016818
:1045100041F00201016000F049FBFFF7CBFD00F024
:104520000DFC02F0ABFE00F099FB80BD704700006F
:104530002DE9F04F87B0814600200029069000F158
:1045400000821646002A00F0FC819B460D46B71CEF
:104550004FF000080029059118BF013D0CE040B262
:10456000C117109BCDE900014846294606AA0293CF
:1045700000F040FA0AF1010816F80830252B0DD09A
:10458000002B00F0CF81109C4846294606AA0094D3
:1045900000F0EAFAC24608F10108EDE708F101006F
:1045A000315C203910290AD8012202FA01F142F6C1
:1045B0000902C0F20102114218BF08F10200315C89
:1045C0002A2903D101300BF1040B05E0315C0130E5
:1045D00030390A29FAD30138315C2E2920D18219C9
:1045E00052782A2A03D15BF8041B02301AE02E29E4
:1045F00016D1431CF25CA2F13001092900F2378187
:10460000002100BF01EB810102EB41013A5C30392E
:10461000A2F130030A2B00F10100F3D3013001E0D5
:104620006FF00041325CAC46A2F14C034C462E2B9D
:1046300000F29580DFE813F02F00930093009300C1
:1046400093009300930093009300930093009300D2
:1046500093009300930093009300930093009300C2
:1046600093009300930093009300930093009300B2
:104670003100930091009300560093009300930043
:104680009300930093009300950093009300930090
:10469000930093009700612266E082195278682A9D
:1046A00001D1722260E02E2B00F259801122DFE846
:1046B00003F0185656565656565656565656565691
:1046C00056565656565656565656565656565B5685
:1046D00054561956565656565656585656565656B7
:1046E0005A00D8E7821952786C2A01D182223BE025
:1046F0002E2B34D81122DFE813F02F0032003200C5
:104700003200320032003200320032003200320019
:104710003200320032003200320032003200320009
:1047200032003200320032003200320032003200F9
:104730003200370032003000320013013200320004
:1047400032003200320032003200340032003200D7
:1047500032003200320036009DE7312204E00022B0
:1047600002E0512200E0412202F0030303EB000AC1
:1047700016F80A90B9F1690F02D0B9F1640F0AD1A5
:10478000822A3AD10BF1070020F0070BDBF8041066
:104790005BF8080B34E0A9F15800202800F26A8089
:1047A000DFE800F011686868686868686868687BB6
:1047B0006868686868686868686868688968689729
:1047C000681168681100822A30D10BF1070121F0CD
:1047D000070BDBF804105BF8085B402A2BDD412A4D
:1047E00000F08C80512A00F08380722A04BFEDB261
:1047F0000021B9F1750F28D184E05BF8040BC117D3
:10480000A1466546202A09DD212A3FF4A9AE512A96
:104810003FF4A6AE722A3FF4A2AEA2E6002A3FF40D
:104820009FAE112A7FF49DAE00B299E65BF8045B5F
:104830000021402AD3DC002A60D0112A5DD0212A31
:1048400008BF0021B9F1750F5CD0B0FA80F04309C0
:104850001098CDE9005102902046614606AAA14673
:104860006546039300F072F80AF1010884E600211E
:104870001846D7E620460494109C614606AA2523D4
:104880006546009400F070F9B9F1250FDDF810903D
:1048900018BFC2460AF101086EE61BF8043BA146A8
:1048A0002046109C614606AA6546009400F05CF91B
:1048B0000AF1010860E65BF8043BA1462046109C23
:1048C000614606AA6546009400F028F90AF101083D
:1048D00052E65BF8043BA1462046109C00916146DD
:1048E00006AA6546019400F0ABF80AF1010843E618
:1048F000E917B9F1750FA8D104E0ADB20021B9F103
:10490000750FA2D1109BCDE900512046614606AA41
:10491000A1466546029300F0B3F80AF101082BE6C0
:10492000212221E7B9F1000F059818BF002808D00F
:104930000698A84287BF002009F80500002109F861
:104940000010069807B0BDE8F08F00002DE9F04F89
:1049500081B006460D98DDE90BA947F2FB47934667
:104960000D4647F20B51C0F6000700284FF000003B
:104970004FF03804C0F6000118BF0F460EE000BF2C
:1049800017F80830304629465A46CDF8009000F016
:10499000EBF80120083C14F1080127D00A99C4F172
:1049A0002002E1400AFA02F21143B4F1200258BF9A
:1049B0002AFA02F1C20713D0C1F30312B2FA82F34A
:1049C0005B09C043184201F00F08D9D1BB5C3046E7
:1049D00029465A46CDF8009000F0C6F8D0E700BF4F
:1049E000002CE9D0CAB2002AD4D0E5E701B0BDE876
:1049F000F08F00002DE9F04383B00DF1280898E80E
:104A0000900191460D46B7F1FF3F06460CDC30465B
:104A100029464A462D23CDF8008000F0A5F86442CF
:104A20004FF0000060EB0707304629464A46CDE9C3
:104A30000047CDF8088000F023F803B0BDE8F0830C
:104A40002DE9F04381B09146089AAAB1064618783C
:104A500090B1DDF824800D465F1E5442C3B230464B
:104A600029464A46CDF8008000F07EF8013403D094
:104A7000B87801370028F1D101B0BDE8F08300001B
:104A80002DE9F04F87B0DDE91074DDF848909046CD
:104A90008A4657EA0401834635D000204FF0FF369E
:104AA00001ADCDE90500CDE90300CDE9010000BF6E
:104AB000384621460A220023FBF7E5FCB7F10A023B
:104AC00074F1000200EB8002A7EB420242F03002D8
:104AD00005EB060306F1010607460C465A70E7D2BD
:104AE000701C0DD26C1E00BF235C451E58465146FB
:104AF0004246CDF8009000F037F8002D2846F3D15B
:104B000007B0BDE8F08F5846514642463023CDF8F5
:104B1000009000F029F807B0BDE8F08F2DE9F041D2
:104B200084B0DDF828801D46302314460E46074623
:104B3000CDF8008000F018F8384631462246782338
:104B4000CDF8008000F010F8E8170121CDE9005001
:104B50000391384631462246CDF80880FFF7F6FE2D
:104B600004B0BDE8F0810000B0B5154612684FF6FC
:104B7000FE74C7F6FF74A24288BFB0BDDDF810C056
:104B8000BCF1000F09D018466146FBF7B8FD0130B3
:104B900007D14FF0FF302860B0BD10B18A4238BF56
:104BA0008354286801302860B0BD000070B54EF60F
:104BB0009455CEF20005BFF35F8F55F8040CC0F397
:104BC0000726032E2BD900242C6000BF2046FCF7BB
:104BD000D9FB0134A642F9D14FF23901C0F202618A
:104BE0001020FCF7D7FB3924C1F2023404F5E06150
:104BF0001320FCF7CFFB4FF23F51C1F20B311120D4
:104C0000FCF7C8FB1220C8F200002146FCF7C2FBEB
:104C100007202860BFF34F8FBFF36F8F70BD02A0D6
:104C200005A13B22FFF738FA726567696F6E732042
:104C30003E3D2034000000002E5C6D6265642D6FE7
:104C4000735C68616C5C6D70755C6D6265645F6DF2
:104C500070755F76376D2E630000000080B500F040
:104C600039F980BD80B584B047F20440C0F6000039
:104C7000D0E90012D0E90203CDE902036846CDE98C
:104C8000001200F0E3F942F2E001C2F20001086014
:104C900004B080BD82B041F2C05241F68825C2F214
:104CA000000240F2C0504423C2F20005C2F20000EC
:104CB000C2E9025302F110034FF48051182413C3C8
:104CC0000FA0106044F6615040F21D16C0F60000BF
:104CD0000021C8F20106002500F088FF30B941F23A
:104CE000C0520FA1C2F20002304604E000F00AF9FF
:104CF00005A13046002200230095FFF727FA00BFE8
:104D00006D61696E000000004661696C6564207425
:104D10006F2073746172742052544F53000000006E
:104D2000507265206D61696E2074687265616420DF
:104D30006E6F7420637265617465640080B5FDF701
:104D400061FAFCF7A3FBFDF703F9FDF75BFAFDF74A
:104D500029FB41F2C870C2F200000121016080BD50
:104D600080B5FFF77FFF00F021F800F007F8FFF7AC
:104D7000DDFBFFF77DFAFFF773F980BD7047000098
:104D8000B0B586B00C4605464FF0000C03A80021D4
:104D900000220023CDF800C0FDF786FE02AB2946B5
:104DA0002246FDF77DFE029806B0B0BD80B541F207
:104DB000C47041F2C071C2F20000C2F2000100688A
:104DC00009680144FCF7B4FA80BD000001460028E0
:104DD00047F60200C0F6000008BF70474968002986
:104DE00018BF08467047000070B584B00D460646EF
:104DF000FDF7A6FC044600283CD40020039001A83F
:104E00003146FDF7EBFEFDF7D5FE60B301A8FDF7D7
:104E1000D7FE20B101A8FDF7BFFE039010E001A866
:104E2000FDF7A0FEF8B1064601A8FDF7D5FE3168F2
:104E30000246D1F808C003A930462B46E047A0B986
:104E4000039840F2AC21C2F2000141F8240040F284
:104E50004050C2F200000021015540F25050C2F211
:104E60000000015506E06FF012002146FDF744FCFA
:104E70004FF0FF34204604B070BD000010B504466A
:104E8000FCF700FF10B9FCF7C1FE38B16FF0050068
:104E90006FF00504FCF786FA204610BD46F2FD4C83
:104EA0002046C0F6000C00DF10BD000080B5FCF706
:104EB000EFFE28B9FCF7B6FE10B9FCF701FF10B100
:104EC00001F026FB80BD46F2115CC0F6000C00DF4D
:104ED00080BD000010B500F073F9FCF7D9FE10B9E1
:104EE000FCF7A0FE38B16FF005006FF00504FCF789
:104EF0005BFA204610BD46F2195CC0F6000C00DFDC
:104F000010BD000010B5FCF7C3FE10B9FCF78AFE17
:104F100038B16FF005006FF00504FCF745FA204644
:104F200010BD46F2796CC0F6000C00DF10BD000029
:104F3000F0B581B01C4615460E460746FCF7AEFE9E
:104F400010B9FCF77BFE38B1384631462A46234675
:104F5000FEF7D2FF01B0F0BD46F2F56C3846C0F660
:104F6000000C31462A46234600DF01B0F0BD0000A8
:104F700070B514460D460646FCF790FE10B9FCF7D6
:104F80005DFE38B100206FF005010024FCF716FA31
:104F9000204670BD46F2FD7C3046C0F6000C294626
:104FA000224600DF70BD0000F0B581B01C461546FA
:104FB0000E460746FCF772FE10B9FCF73FFE38B10B
:104FC000384631462A462346FEF7C8FF01B0F0BDF9
:104FD00046F6891C3846C0F6000C31462A46234660
:104FE00000DF01B0F0BD0000B0B50D460446FCF78F
:104FF0005BFE10B9FCF72EFE40B120466FF00501B4
:105000006FF00504FCF7E2F92046B0BD46F6712CBE
:105010002046C0F6000C294600DFB0BD10B504469E
:10502000FCF742FE10B9FCF715FE40B120466FF0C8
:1050300005016FF00504FCF7C9F9204610BD46F6DE
:10504000313C2046C0F6000C00DF10BD10B5044610
:10505000FCF72AFE10B9FCF7FDFD38B100206FF017
:1050600005010024FCF7B2F9204610BD46F60D4CB0
:105070002046C0F6000C00DF10BD000010B504464D
:10508000FCF712FE10B9FCF7E5FD40B120466FF0C9
:1050900005016FF00504FCF799F9204610BD46F6AE
:1050A000954C2046C0F6000C00DF10BD82B00246D1
:1050B000411E40F200100429C8F202000CD8DFE8BB
:1050C00001F003121A22270047F60D2125304FF078
:1050D000000CC0F600011FE047F657114FF0000C1E
:1050E000C0F6000118E047F6B31126304FF0000C6F
:1050F000C0F6000110E047F6D81127304FF0000C41
:10510000C0F6000108E028304FF0000C15A103E0C4
:105110002A304FF0000C03A10023CDF800C0FFF7A8
:1051200015F800BF434D5349532D52544F5320653A
:1051300072726F723A2053544420432F432B2B201A
:105140006C696272617279206D7574657820696E20
:10515000697469616C697A6174696F6E20666169EE
:105160006C656400434D5349532D52544F53206591
:1051700072726F723A2053544420432F432B2B20DA
:105180006C696272617279206C69627370616365C7
:10519000206E6F7420617661696C61626C650000DD
:1051A0007047000000F0A4FF40F2F420C2F20000BB
:1051B000007A704740F2F420C2F20000007A704793
:1051C0007047000040F2F420C2F20000007A7047FD
:1051D0002DE9F041064600284FF0000018BF0029D5
:1051E00001D1BDE8F0819046032A88BFBDE8F08177
:1051F00001F10F0020F0070730460821FCF7E8FD19
:10520000054600BFD5E90001421B21F00301511AF8
:10521000B94206D2016805460029F3D10020BDE855
:10522000F0813046FCF7D6FDD0E90021CC1944606E
:10523000A2F108013046FCF7CBFD4168A14238BF1E
:105240004460686860B120F003012846FCF7C0FDA7
:10525000296847EA0802C0E900122860054602E012
:1052600047EA0800686028460821FCF7B1FDBDE860
:10527000F0810000F0B581B0044600284FF0000036
:1052800018BF002901D101B0F0BD08460021002659
:10529000FCF79EFDA0F1080720460821FCF798FDC9
:1052A0000546B84205D000BF2E462D687DB1BD42EF
:1052B000FAD1686820F003072046FCF78BFD4168AF
:1052C000A1EB070141602EB12868306004E00020A6
:1052D00001B0F0BD00206860012001B0F0BD000009
:1052E000F0B581B010B10446400702D0002001B0F3
:1052F000F0BD0D4618294FF0000019D315F0070135
:1053000016D12046FCF766FD1027C0E9005720465D
:105310000821FCF75DFD0646A5F108012046FCF7D3
:1053200057FD0021306001603068476001207160E6
:1053300001B0F0BDB0B550B105461430FEF748F9E4
:10534000044610B1281DFEF733F92046B0BD0020F9
:10535000B0BD000010B578B10446C06888420BD8D3
:105360002069884208D904F11400FEF73FF9201D96
:10537000FEF7E6F8002010BD6FF0030010BD00003E
:10538000844600284FF0000018BF002900D1704764
:10539000002AFCD0002B08BF704780B502FB01300B
:1053A0004FF0000E0129CCE9001ECCE90223CCF815
:1053B0001000CCF8143008D0494200BF98180131D1
:1053C00018604B1C0346F9D100E01846C0F800E015
:1053D0000120BDE880407047704700007047000022
:1053E0007047000070470000F0B581B00446807837
:1053F000A8B3E56821462846FCF72EFD002005F1FC
:105400000C06207030462146FFF7A4FFA86800284C
:1054100051D03046FFF78EFF00284CD00446284676
:1054200000F0A4F800F02CFA002100220646002724
:1054300000F01AFB304600F09DFA81686A6A064661
:1054400004F10C00FBF7B5FAF9202070F068214652
:10545000E0702846A770FCF7D5FC01B0F0BDA56848
:10546000A86820B34078832821D1284600F07EF830
:1054700000F006FA002100220646002700F0F4FAA8
:10548000304600F077FA064680686A6A04F10C013B
:10549000FBF78FFAF06800281CBFE178017005F176
:1054A0000C0021462770FFF755FF01B0F0BD2846DC
:1054B0002146FCF7A7FC01B0F0BD000070470000DA
:1054C000704700002DE9F041002808BFBDE8F081D9
:1054D000044600274FF0010801E000BFECB1E0787E
:1054E000254664690007F9D5A8682F760028F5D00D
:1054F000284600F03DF800F0C3F9002100220646DE
:1055000000F0B2FAF06AEE602F610028686118BFFF
:105510000561F56285F81880E0E7BDE8F0810000DC
:1055200080B5C27892071FD5C06890F821C0C36AC1
:1055300002E000BF5B6973B19A688A4208BF926853
:10554000002AF7D092F920E04FFA8CF29645C8BFB6
:105550005FFA8EFCEEE790F82010614508BF80BD31
:1055600080F820C000F0CAF980BD0000704700003C
:10557000704700007047000070470000B0B5FEF7AC
:1055800025FD48B340F2F424C2F2000404E000BF59
:10559000A847FEF71BFDF8B10178F1390829F8D8C2
:1055A000DFE801F00A090E09091216090500256F46
:1055B000FFF714FFECE7ECE7256E00F0B7F9E7E73B
:1055C000656EFFF7EDFDE3E7A56E00F01FF8DFE77E
:1055D000E56EFFF701FFDBE7002000F0DDF8B0BD6E
:1055E00010B50446FEF70AFD58B140F2F420C2F2AD
:1055F0000000417A00291ABF01218172FCF7A0FC4A
:1056000010BD02202146FFF751FD10BD704700007C
:10561000B0B504460120607040F2F420C2F20000F0
:1056200094F920501C3000F083F900BF01468068D7
:1056300050B190F92020AA42F8DC00F10C02C4E934
:1056400002018C601460B0BD01F10802C4E90201DE
:105650001460B0BD10B54A1C1CD040F2F42CC2F24C
:10566000000CDCF82C30002B1A4618BF01222BD07E
:10567000DC698C4202D94FF0000E27E09E461B6980
:10568000091B002B1A4618BF01221FD0DC69A1425A
:10569000F4D21BE040F2F421C2F2000101F1300427
:1056A000002321461A460B68002B03F11001F9D1A3
:1056B0004FF0FF31C16100210161002A426118BF32
:1056C00002F11004206010BD4FF0000E0EF1100426
:1056D000BEF1000FC161C0E9043E08BF0CF12C040B
:1056E000002A206008BF10BDDA6903F11404511AC2
:1056F000D961206010BD0000C2690169531C0ED041
:1057000021B1CB691A444369CA614B61D0E90412E3
:1057100062B940F2F420C2F20000C1627047002971
:105720001CBF42694A61D0E904121AB1116100211B
:105730004161704740F2F420C2F2000001637047FB
:1057400070B540F2F425C2F20005EC6A1CB3E069C2
:105750000138E06118BF70BD042600BF60781338BF
:10576000B6EB301F09D1204600F0BEF8FFF704FF6A
:10577000FFF7A6FE2146FFF7D3FE204600F0A6F86D
:10578000204600F0EBF8246924B1E0690028E5D058
:1057900000206061EC6270BD70B50546FFF70AFD40
:1057A000064600F065F804465DB1022E05D195F974
:1057B000200094F92010884216DC284600F0CEF82C
:1057C00070BD022EFCD140F2F420C2F20000456A06
:1057D000002DF5D095F9200094F920108842D8BF0B
:1057E00070BD284600F072F82046FFF711FF2846EA
:1057F00000F00EF970BD000010B50446807800215D
:105800008207218013D5C00608D440F2F420C2F2EA
:105810000000406F216BFFF72DFD08E040F2F420FF
:10582000C2F20000D0F88400216BFFF793FDA0784E
:10583000C00708BF10BD40F2F421C2F20001D1F848
:10584000880018B12146FFF785FD10BDD1F8800012
:105850002146FFF70FFD10BD40F2F420C2F2000018
:105860004069704740F2F420C2F20000406970477E
:1058700040F2F420C2F20000406970477047000017
:10588000B0B58468A568856015B100F051F8E8608E
:1058900000212046E160B0BDB0B591F920500C4622
:1058A00000F046F80146806850B190F92020AA42E5
:1058B000F8DA00F10C02C4E902018C601460B0BD9A
:1058C00001F10802C4E902011460B0BDC1680029F9
:1058D00008BF704782688A60816800291CBFC2685F
:1058E000CA600021C16070470178F12918BF704774
:1058F000C0680178F129FBD070470000B0B50446BC
:1059000030B120460178F12902D1C0680028F9D1D0
:10591000FFF732FE002808BFB0BD05462046FFF75E
:10592000D5FF28462146FFF7B7FFB0BD70470000FE
:105930007047000010B50446407833280DD1616AE5
:1059400094F823202046FCF72FFD002808BF10BD47
:1059500001462046002200F087F810BD80B50146C0
:105960000120487040F2F420C2F200001C30FFF722
:1059700093FF80BD10B5846B90F82200FCF73CFCCF
:10598000204410BD40F2F420C2F200000021416129
:105990007047000080B5FFF76BFF78B10146006BE0
:1059A0008A6B824207D9006842F6A562CEF25A227B
:1059B000904208BF80BD0120FFF778FB80BD00004A
:1059C00070B547F26434C0F6000445F2A510A26D2C
:1059D000C0F60000666E002101F00AFAFFF74EFFE4
:1059E00040F2F425C2F20005A86276B1E26D45F6F8
:1059F0000D30C0F60000002101F0FAF9FFF73EFF7C
:105A0000A864002818BF012070BD012070BD0000EF
:105A100080B50221417040F2F421C2F20001886198
:105A2000FFF7B8FF80BD000070B50C460546FFF7D4
:105A3000C1FB02284FF0000014D140F2F426C2F25C
:105A40000006716A002908BF70BDFFF711FF2146EB
:105A50004570FFF7FFFD06F11C00FFF711FFFFF790
:105A6000D7FF012070BD000070B515460E460446F4
:105A7000FFF780FF06602046FFF73EFE204615B187
:105A8000FFF78AFE70BDFFF769FF70BD70B5FCF7C8
:105A9000F7F940F2F425C2F20005E968286D0131FA
:105AA0000028E96018BF8047FFF74AFE0020FFF793
:105AB00073FE286C68B1A969AE6B8E421CBFC5E944
:105AC0000E1070BDE86B00281CBF0138E863E86B5E
:105AD00000B170BDFFF768FB0228FAD16C6A002C98
