:020000040800F2
:10000000000002206D030008750300084D0200087F
:1000100051020008550200085902000800000000C3
:10002000000000000000000000000000A90200081D
:10003000810300080000000041030008510300088C
:100040008703000887030008870300088703000868
:100050008703000887030008870300088703000858
:100060008703000887030008870300088703000848
:100070008703000887030008870300088703000838
:1000800087030008870300088703000800000000BA
:1000900000000000000000000000000087030008CE
:1000A0008703000887030008870300088703000808
:1000B00087030008870300088703000887030008F8
:1000C00087030008870300088703000887030008E8
:1000D000870300088703000887030008000000006A
:1000E000870300088703000887030008000000005A
:1000F000000000000000000000000000870300086E
:100100000000000087030008870300088703000839
:1001100000000000000000000000000000000000DF
:100120008703000887030008870300088703000887
:10013000870300080000000000000000000000002D
:10014000000000000000000000000000870300081D
:100150008703000887030008870300088703000857
:10016000870300088703000800000000000000006B
:10017000000000000000000000000000000000007F
:1001800000000000870300080000000000000000DD
:10019000870300088703000800F002F815F0CEF985
:1001A0000AA090E8000C82448344AAF10107DA45D2
:1001B00001D115F0C3F9AFF2090EBAE80F0013F040
:1001C000010F18BFFB1A43F00103184704D40100C4
:1001D00024D40100103A24BF78C878C1FAD8520755
:1001E00024BF30C830C144BF04680C6070470000B1
:1001F0000023002400250026103A28BF78C1FBD830
:10020000520728BF30C148BF0B6070471FB51AF0B6
:1002100037FE9DE8030000F022FF00F003FF04001A
:10022000002000211AF0F8FB401C60600020002133
:100230001AF008FCE060002000211AF019FC20618F
:1002400001F000FC00F0D2FE1FBD0000102304E00E
:10025000202302E0302300E040239C46F0B404AEAB
:100260007546E80801D3EFF309860E4F0FCE0FC78E
:100270000FBC0FC74046494652465B460FC71DCECE
:100280003100A60A00D304316E0900D248311FC7DD
:10029000EFF309806946EFF3148663C760460149AE
:1002A00016F0FCFB980100201EF0040F0CBFEFF3CA
:1002B0000880EFF30980816911F8021C91BB01B538
:1002C00090E80F10E047BDE800508CE80300244B95
:1002D00093E80600914208BF704741B91EF0100F25
:1002E00010D12049086820F0010008600AE02CE9DC
:1002F000F00F1EF0100F08BF2CED108AC1F838C0A7
:1003000081F822E01A6092F82210906B61F0FF0EE3
:100310001EF0100F08BFB0EC108AB0E8F00F80F3A9
:1003200009887047104A13689942FAD801B552F803
:1003300021C00FC8E047BDE80050CCF8000070476E
:1003400001B517F085FCBDE80140EFF3098CBEE76D
:1003500001B517F005FFBDE80140EFF3098CB6E7E2
:100360000803002034EF00E06CCE01080648804707
:1003700006480047FEE7FEE7FEE7FEE7FEE7FEE78A
:10038000FEE7FEE7FEE7FEE72149000899010008C5
:100390007047000010B500F045FE001D10BD00BF05
:1003A00079A6010015F0F2B80844401E491E8843A2
:1003B00070470821001DF7E72DE9F04117460E466A
:1003C0000446FFF7F6FFA042054633D9002F1CBFB5
:1003D00006F10C0015F03CF930467468F4B1216860
:1003E000A94217D305F1080291423CBF6168416000
:1003F00007D3626861194A602268521B0A60416033
:100400002560002F1CBF06F10C0015F0A1F9201D7E
:10041000BDE8F08120466468002CE0D129463046D2
:1004200000F009FE0028D7D1002F1CBF06F10C00F8
:1004300015F08EF90020BDE8F08110B5044600F0FB
:10044000ECFD01682046BDE810400122B4E770B51C
:1004500016460D46041F002808BF70BD002E1CBFA5
:1004600005F10C0015F0F4F82B465868002818BF69
:10047000A04238BF0346F8D31968CA18A24218BF71
:100480005C6003D122681C461144196021680A1976
:10049000824218BF606004D142686260006808440C
:1004A0002060002E1CBF05F10C0015F051F970BD45
:1004B00010B5044600F0B1FD01682046BDE81040CB
:1004C0000122C4E753EA020C00F069802DE9F04BE9
:1004D0004FF00006002B1FBFB3FA83F503FA05F4B3
:1004E00024FA05F65E4012BF1643B2FA82F502FA0C
:1004F00005F4C5F120051EBF22FA05FC44EA0C04F0
:10050000203556EA044C4FEA144418BF641C4FF0DF
:1005100000084FF00009904271EB030C39D3002919
:1005200019BFB1FA81F701FA07F6B0FA80F700FABD
:1005300007F6C7F120071EBF20FA07FC46EA0C06A3
:100540002037B6FBF4FCA7EB0507103F07F01F0BA5
:10055000CBF120062CFA06F60CFA0BFB44BFB3468F
:100560000026202FA4BF5E464FF0000B5BEA060C6E
:1005700008BF4FF0010B19EB0B0948EB0608ABFB6A
:10058000027C06FB02CC0BFB03CCC01B71EB0C0105
:10059000C1E70B46024641464846BDE8F08B13B51D
:1005A000084318BF4FF0FF300146AFF30080BDE8AD
:1005B0001C40704770B5044685690068C10601D5C6
:1005C000302600E02026C00707D070BDD4E9012105
:1005D00030469047206A401C20626D1EF6D570BDE3
:1005E00070B5044685690078C00707D170BDD4E9AD
:1005F000012120209047206A401C20626D1EF6D504
:1006000070BD00000FB400B58DB010A90990009125
:100610000B904FF0FF300A9000200C900648784471
:100620000690064878446A4607900F9909A800F09A
:100630000DFE0DB05DF814FB4B0C0000630C0000C8
:100640002DE9FF5F1D464FF0FF3B91464FF000083C
:100650005F46D5E90146A96901987F1C8847296A48
:10066000824688470028F6D1BAF1FF3F0CD0002E11
:1006700024F4C06419DD600614D5BAF12B0F09D03B
:10068000BAF12D0F0ED103E0584604B0BDE8F09F3B
:1006900044F48064A96901987F1C8847761E8246CD
:1006A000002E02DDBAF1300F03D0B9F1000F26D0D1
:1006B00032E0A969761E01987F1C44F400748847D3
:1006C000002E824605DDBAF1780F06D0BAF1580F38
:1006D00003D0B9F1000F10D01EE0B9F1000F02D025
:1006E000B9F1100F18D1A969761E01987F1C24F466
:1006F000007488478246102002E0082000E00A20AB
:10070000814609E0A96908FB0908761E01987F1C4B
:1007100044F4007488478246002E05DD4946504661
:1007200000F0D5FC0028EDDAE96901988847A005BA
:1007300002D46FF00100A8E7E00725D1600613D5C9
:10074000600502D5C8F1000000E0404629680A1D96
:100750002A600968220501D5087015E0220701D535
:10076000088011E008600FE02868011D296000681A
:10077000210502D580F8008006E0210702D5A0F807
:10078000008001E0C0F8008038467EE72DE9FF5F79
:100790004FF000089946144646469169D2E901A7F0
:1007A000DDF838B001988847054659EA0B0005D0B6
:1007B00009E0A1690198761C88470546216A284608
:1007C00088470028F5D1681C03D05FEACA7005D0BD
:1007D00015E04FF0FF3004B0BDE8F09F2068011D28
:1007E0002160D0F800800AE05FEACA7001D108F801
:1007F000015BA169761C01987F1E88470546002F82
:100800001ADD681C18D0B9F1000F0DD0E81705EB00
:10081000D060421120F01F0059F822102A1A01203E
:1008200090400142E0D107E0BBF1000FDCD1284647
:10083000216A88470028D7D0E16901988847BBF131
:10084000000F07D1002E05DD5FEACA7002D100213A
:1008500088F80010A068B84203DDBBF1000F03D098
:1008600017B16FF00100B6E73046B4E72DE9F0416B
:10087000044616460D464769007B80072ED0384651
:1008800014F092FF50BB3EB3012E02D0022E25D1B0
:1008900004E0204600F066F805441DE0384614F0F8
:1008A0006FFFE168002841F01001E16005DA2046A1
:1008B00000F0E6FF0120BDE8F081C9030BD56268B6
:1008C000E16A914200D81146A26911442269891A4D
:1008D000814200DD08460544002D01DA0220EAE7E6
:1008E000E16A6068E268814206D29103E06203D562
:1008F00022F4003141F01002A6690027AE4213DC59
:10090000E16A814201D90B4600E0034603EB060C85
:100910002369ACEB030CAC4506DD814201D98C4662
:1009200000E084469C4505D1A760276042F0200086
:10093000A5620DE0AD1BE669AE1B8142A66000D941
:100940000846C01A281A20605819606022F020005A
:1009500003490840E060002084F84870ABE70000DD
:10096000BFCFD7FF10B50146C268900703D09006ED
:1009700007D5886A0AE0FFF715FD01210160881E8E
:1009800010BD8B69486818440B69C01A91F848304B
:100990001BB191F84910401A10BD1103FCD5002875
:1009A000FADD401E10BD2DE9F04704464FF0000966
:1009B0004FF0FF37C568D4E90486A80707D0204662
:1009C00000F092FF304614F0D5FE002802DA3846D7
:1009D000BDE8F087280502D54046FFF769FD4C21A8
:1009E000204600F098FA206D20F00100206548466E
:1009F000EEE770B5044600F14C05284614F028FED9
:100A0000204619F067FF0446284614F0A1FE204650
:100A100070BD70B50C46064601F14C05284614F031
:100A200017FE2146304619F061FF0446284614F0AF
:100A30008FFE204670BD00002DE9F041044600F114
:100A40004C07384614F004FEE068810712D0800697
:100A500001D5A66A04E0A169606808442169461AC4
:100A6000204600F041FF0022054631462046FFF7B0
:100A7000FDFE00E00025384614F06AFE2846BDE879
:100A8000F0812DE9F04118B1BDE8F041FFF7D4BF86
:100A90000B4E0025304614F0DBFD0A4C6F1E07E0BC
:100AA0002046FFF7C9FF00B13D46206D20F001044C
:100AB000002CF5D1304614F04BFE2846DFE700004D
:100AC000A40200209C0300202DE9F047164688462A
:100AD000070010D006F14C00814614F0B9FD3046F5
:100AE000FFF761FF18F8010B61280DD0722805D0BF
:100AF000772841D105E00020BDE8F08701250024DA
:100B000005E00225042402E0082448F2020518F852
:100B1000010B2B2806D0622809D018F8010C742884
:100B20000AD00BE045F0030544F00204EFE745F07E
:100B3000040544F00104EAE744F010043846214675
:100B400014F036FE411C17D00021316171604FF462
:100B50000071F560F1617061200704D53046022212
:100B60000021FFF783FE306D40F0010030654846FC
:100B700014F0EEFD3046BFE70026F8E72DE9F0411E
:100B800015460E460746214C204614F061FD2A46C4
:100B900031463846FFF798FF0546204614F0D8FD49
:100BA0002846BDE8F0812DE9F0410E468046174DFC
:100BB000284614F04DFD164C206DC10704D04108A5
:100BC00004D020F00104F7E7224612E05420FFF79A
:100BD00034FC070017D0206D47F001010843542171
:100BE0002065384600F097F907F14C0014F05EFDDF
:100BF0003A4631464046FFF767FF0446284614F060
:100C0000A7FD2046CDE70024F8E70000A40200205D
:100C10009C03002030B503461D783DB10A4612F80A
:100C2000014B1CB1AC42FAD15B1CF5E7181A30BD80
:100C300040EA010310B59B070FD1042A0DD310C859
:100C400008C9121F9C42F8D020BA19BA884201D9AB
:100C5000012010BD4FF0FF3010BD1AB1D30703D0F3
:100C6000521C07E0002010BD10F8013B11F8014BA9
:100C70001B1B07D110F8013B11F8014B1B1B01D1C5
:100C8000921EF1D1184610BD10B5431C02E010F8B9
:100C9000011B71B18107FAD14FF0013202C88C1AE1
:100CA0008C4314EAC211F9D0C01A0A0603D0C01E40
:100CB00010BDC01A10BD0A0401D0801E10BD09026B
:100CC000FCD0401E10BD032A40F2308010F0030C0F
:100CD00000F0158011F8013BBCF1020F624498BF8F
:100CE00011F801CB00F8013B38BF11F8013BA2F12C
:100CF000040298BF00F801CB38BF00F8013B11F0A7
:100D0000030300F06780083AC0F0088051F8043B04
:100D1000083A51F804CBA0E80810F5E7121D5CBFB3
:100D200051F8043B40F8043BAFF30080D20724BFE6
:100D300011F8013B11F801CB48BF11F8012B24BF7A
:100D400000F8013B00F801CB48BF00F8012B7047C9
:100D5000431A28BF9A427FF6B6AF10441144032AC3
:100D600040F2268010F0030F1EBF11F8013D521E05
:100D700000F8013D10F0030F7FF4F6AF11F003030C
:100D800000F06D80083AC0F00B8051F8043D083A3D
:100D900051F804CD40F8043D40F804CDFFF7F3BF0F
:100DA000121D5CBF51F8043D40F8043DAFF30080D4
:100DB000D20724BF11F8013D11F801CD48BF11F849
:100DC000012C24BF00F8013D00F801CD48BF00F818
:100DD000012C704710B5203AC0F00B80B1E81850D4
:100DE000A0E81850B1E81850A0E81850203ABFF415
:100DF000F5AF5FEA027C24BFB1E81850A0E81850B4
:100E000044BF18C918C0BDE810405FEA827C24BF07
:100E100051F8043B40F8043B08BF7047D20728BF95
:100E200031F8023B48BF11F8012B28BF20F8023BE4
:100E300048BF00F8012B7047431A28BF9A427FF63B
:100E4000C9AF1044114410F0030F1EBF11F8013D4B
:100E5000521E00F8013D10F0030F7FF4F6AF103A78
:100E6000C0F00A8010B531E9185020E91850103A46
:100E7000BFF4F9AFBDE81040530724BF31E90810B3
:100E800020E9081044BF51F8043D40F8043D12F039
:100E9000030F08BF7047D20728BF31F8023D48BF93
:100EA00011F8012C28BF20F8023D48BF00F8012CA2
:100EB000704702F0FF0343EA032242EA024200F0D5
:100EC0000AB802F0FF0343EA032242EA024200F0BA
:100ED00024B84FF000020429C0F0128010F0030C77
:100EE00000F01B80CCF1040CBCF1020F18BF00F81D
:100EF000012BA8BF20F8022BA1EB0C0100F00DB8CC
:100F00005FEAC17C24BF00F8012B00F8012B48BF29
:100F100000F8012B70474FF0000200B513469446CD
:100F20009646203922BFA0E80C50A0E80C50B1F141
:100F30002001BFF4F7AF090728BFA0E80C5048BF55
:100F40000CC05DF804EB890028BF40F8042B08BFF3
:100F5000704748BF20F8022B11F0804F18BF00F8EF
:100F6000012B70470000000030B44FF0013C50F8F6
:100F7000042B51F8043BCCFA52F4D51A20D1FCB919
:100F800050F8042B51F8043BCCFA52F4D51A17D17F
:100F9000B4B950F8042B51F8043BCCFA52F4D51AEA
:100FA0000ED16CB950F8042B51F8043BCCFA52F432
:100FB000D51A05D1002CDAD030BC4FF000007047B4
:100FC00029BAB1FA81F111F01801D1F12000844061
:100FD000F2D1CA40CB4012F0FF0213F0FF0330BC45
:100FE000D01A7047704770477047000070B5064CC4
:100FF0007C44064D7D4404E0204601680844804757
:10100000241DAC42F8D170BDB8C80100C8C80100A9
:101010000048704798040020704710B5FFF7F8FFAC
:10102000083010BD10B5FFF7F3FF203010BD70473A
:1010300070477047704738B504460A460020694635
:10104000AFF30080002808BF38BD02460099204653
:1010500000F069FE012038BD012001F087BDF8B520
:10106000AFF30080054600200C46102000BF064666
:10107000A819A0420DD9324669460020AFF300807E
:10108000070008BF01F072FD0098A04218BF054696
:10109000C419FFF7C2FF05600746F01D20F00700E6
:1010A0004619284600F00AF8B44208BFF8BDA21B52
:1010B00031463868BDE8F84000F035BE00210160D7
:1010C000C0E901100C3014F0F1BA102070473A2832
:1010D00000D2303820F02002412A01D3A2F137009B
:1010E000884201D34FF0FF3070472DE9FF4F1C4677
:1010F00091464FF0FF3581B000218A468846D4E9F9
:101100000167A16902986D1C8847216A8346884758
:101110000028F6D1BBF1FF3F0CD0002F26F4C066AB
:101120001ADD700615D5BBF12B0F0AD0BBF12D0FC0
:101130000FD104E04FF0FF3005B0BDE8F08F46F46A
:101140008066A16902986D1C88477F1E8346002F28
:1011500002DDBBF1300F03D0B9F1000F2AD025E03A
:10116000A1696D1C02987F1E46F400768847002F07
:10117000834605DDBBF1780F06D0BBF1580F03D0D5
:10118000B9F1000F10D011E0B9F1000F02D0B9F1A0
:10119000100F0BD1A1696D1C02987F1E26F40076FA
:1011A00088478346102000E0082081464FEAE97016
:1011B000009017E00A20F8E74346AAFB0928DDF86B
:1011C00000C07F1E03FB098046F4007605F101058F
:1011D0000AFB0C0112EB0B0A029841EBEB78A169B8
:1011E00088478346002F06DD49465846FFF76FFFC4
:1011F0005FEA000BE0D5E16902988847B00502D4A8
:101200006FF0010098E7F00718D1700610D551462D
:10121000700505D50023D1EB030163EB080200E064
:1012200042462068031D23600068C0E9001205E003
:101230002068011D21600068C0E900A828467BE7FE
:10124000026811441378016018467047D16005495F
:1012500079445161044979441162002111611146B8
:1012600000F0F6BDEDFFFFFF5F540100426842B1A0
:10127000016811F8013B23B1521EC0E90012184663
:1012800070470121C160881E704742685AB1C36827
:10129000016843B983688B4205D0491E521CC0E9DE
:1012A0000012002070474FF0FF30704700230360AA
:1012B00001F026BA2DE9FF4F4FF000089B46144677
:1012C000454683B0D2E90196CDF80080CDF8048080
:1012D0009169DDF848A00498884707465BEA0A0050
:1012E00005D009E0A16904986D1C88470746216A6A
:1012F000384688470028F5D1781C03D05FEAC970CA
:1013000005D01BE04FF0FF3007B0BDE8F08F20683C
:10131000011D2160D0F8008010E05FEAC97007D19C
:101320006A464046B9B201F0E2FB411C31D080442C
:10133000A1696D1C0498761E88470746002E14DDAF
:10134000781C12D0BBF1000007D03B46DDE910123B
:1013500001F010FA0028E0D107E0BAF1000FDCD16B
:101360003846216A88470028D7D0E1690498884721
:10137000BAF1000F06D1002D04DD5FEAC97001D17A
:1013800088F80000A068B04203DDBAF1000F03D076
:1013900016B16FF00100B7E72846B5E72DE9FF5F0A
:1013A0009B46144600273D469169D2E90196DDF837
:1013B00040A00198884780465BEA0A0005D009E012
:1013C000A16901986D1C88478046216A404688477C
:1013D0000028F5D1B8F1FF3F03D05FEAC97005D00E
:1013E00014E04FF0FF3004B0BDE8F09F2068011D0D
:1013F000216007680AE05FEAC97001D127F8028B13
:10140000A1696D1C0198761E88478046002E15DD67
:10141000B8F1FF3F12D0BBF1000007D04346DDE931
:101420000E1201F0A7F90028E5D107E0BAF1000F8C
:10143000E1D14046216A88470028DCD0E169019863
:101440008847BAF1000F05D1002D03DD5FEAC970AE
:1014500000D13880A068B04203DDBAF1000F03D09C
:1014600016B16FF00100BEE72846BCE770B50D4627
:1014700001461446D36850692A4614F0CFF9002873
:1014800007DA411C07D0E16820F0004041F48041B8
:10149000E160281A70BD204600F0F2F94FF0FF30ED
:1014A00070BDC1680022026021F4805141F040010A
:1014B00011F4C06FC16001D0826070470269416859
:1014C000891AC269891A816070472DE9F04704467C
:1014D000C06840F48000E060010312D520F40020D1
:1014E000E060810606D4E26A61688A4200D80A4652
:1014F000511A216040F40010E06094F82500BDE826
:10150000F08720F40010E060800602D5204600F04D
:101510000EFAE06842F281014FF0FF3901400129E3
:1015200003D0204600F0ACF9B6E02168002600297F
:101530000ADAC94340F480502160C4E9026060685F
:10154000411C61600078DAE744F2400108420CD0A7
:1015500020F4A04040F040002660E060216960680F
:10156000401AE169401AA06096E0216991B9C00370
:1015700010D4E069FEF761FF2061B0B1E06840F48B
:10158000006010F4407FE06002D140F48070E060C1
:1015900020696060E068D4F814A0C1061AD5C003C1
:1015A0000ED5204600F0A0F914E004F124002061DB
:1015B0000120E061E06820F4407040F48060E6E7DC
:1015C00021696068401AA1690144504614F0C8F9C5
:1015D0000028A6DBE068C0032AD56168E06A88427B
:1015E00000D808462169451AE069471B1BD02046F0
:1015F000D4F8188000F078F908EB05015046C4F8DB
:10160000188014F0ADF900288BDBE06840F400305E
:10161000E060000202D5A0692844A061E169206968
:10162000C91B45180DE0204600F05EF9E769F5E7B3
:1016300025696168D4E90607491BE56208446560CD
:10164000A061E06820F0100010F4C06FE06002D0EC
:10165000204601F007F9E06840F48050C4E90260D8
:10166000000205D52069E06260606FF0010046E786
:10167000224639462846FFF7F9FE411C0CD02918AE
:10168000E16258B1401E2060681C6060E06840F470
:101690000030E060287832E7484630E76560204651
:1016A000FFF7FFFEF8E72DE9F04705460C46C8684E
:1016B00020F4201040F48000C860800602D508465F
:1016C00000F035F9E06841F282014FF0FF39014046
:1016D000022903D0204600F0D3F8B5E000F4204101
:1016E000B1F5004F0FD1C00306D56168E06A8842AA
:1016F00000D80846606006E02069E06260606069CA
:1017000014F03EF8A061A0680022EEB200280DDAC5
:10171000E1688B050AD4C043A06041F49030226098
:10172000E0606068411C61600670A5E0E06890467A
:10173000226040F40050E060206968BB606914F0EA
:1017400033F8012704F12405A0B1A08910F4407FEB
:1017500008D0E069FEF771FE206118B1E06840F43E
:10176000006016E0E7612561E06820F4407040F415
:1017700080600EE0E069FEF760FE00282061F1D095
:10178000E06840F4006010F4407FE06002D140F473
:101790008070E06020696060E06825696FF0010A90
:1017A000C1051FD56168E06A884200D80846411B20
:1017B00004D02246284600F06DF8F0BBE068010234
:1017C00003D5E562C4E9015854E0691CE162616037
:1017D000E16940F48030491EC4E9021030462E70A1
:1017E000BDE8F087010202D500F480320AE06068AB
:1017F000411C61600670E0680A2E40F48030E060B1
:1018000006D00022E16A6068814203D90B4602E0FB
:101810000122F7E70346A7895B1B7F0503D4E7692D
:101820009F4200DDE2B1814200D80146E5620F1A15
:10183000C4E90158002B09DD00E005E02246194605
:10184000284600F027F808B14846C9E747B1A06923
:10185000E5626560C01BA061E06840F01000E060D8
:10186000E068000208D56168A069E562491B084488
:101870006560A0615046B3E73046B1E7FFF7B9B8FD
:10188000C16821F4001141F08001C1600021816034
:10189000016070472DE9F047814614460E464FF02F
:1018A000FF383248D5685769054209D03846A169E2
:1018B00014F056F8002811DB2C48C0430540E560C1
:1018C0002B4632464946384614F050F8A16920F0BC
:1018D0000042B21A11440028A16103D02046FFF74C
:1018E000CFFF4046BDE8F08770B504460569C06A81
:1018F0006168884200D80846E16821F42011E1605F
:10190000C90312D5A84208D02246411B2846FFF73A
:10191000C1FF10B14FF0FF3070BD0020E562C4E997
:101920000150E06820F48030E060002070BD10B508
:101930000446C06820F02000E060A16AA0698842E7
:101940000DD02046FFF7D0FFE06820F4405040F073
:101950001000E060A06AA0612069E062606044F26B
:101960004001E0688843E06010BD00001000020004
:10197000CA68431C0FD00D4B1A420CD1D3070AD0B2
:1019800081F825004B680B6300238B6012F0C06F59
:101990000B6003D004E04FF0FF30704742F000725C
:1019A000034B1A40034B1A43CA607047802008005B
:1019B000BFFFDFFF0010480070B50C46064601F17E
:1019C0004C05284613F044FE21463046FFF7D0FF71
:1019D0000446284613F0BCFE204670BD2DE9F047B2
:1019E00004461E4690460D46C7684C30814613F0AB
:1019F0002FFEB80714D0780212D44046B8F5807F85
:101A000009D0B0F5007F06D0B8F5806F08D1012667
:101A100004F1240506E0701E6FF07F41884201D377
:101A2000012409E02561E6616560E06820F47060EA
:101A300040EA0800E0600024484613F089FE204692
:101A4000BDE8F08710B565485421FFF764FA644893
:101A50005421FFF760FA63485421FFF75CFA6248AB
:101A60005E49624A624B01605D4810605D4A1A60DF
:101A7000431C0B65511C01650120106557484C3013
:101A800013F014FE56484C3013F010FE55484C30FD
:101A900013F00CFE574813F009FE58484F4A56A160
:101AA0007844FFF76BF820B9544878440A3801F0BD
:101AB00056F854484A4A52A17844FFF75FF820B9D3
:101AC000504878440A3801F04AF84F48454A4CA13A
:101AD0007844FFF753F820B94B4878440A3801F0AE
:101AE0003EF840233D48DC0000212246FFF776FF08
:101AF00020B142487844543801F031F83848224641
:101B000040230021FFF76AFF20B13E487844543853
:101B100001F025F83348224610230021FFF75EFF2D
:101B2000002806D038487844BDE81040563801F007
:101B300016B810BD2B482DE9F041006D2D4E20F058
:101B40000104304613F084FD244D4C35284613F033
:101B50007FFD2248FEF727FF284613F0F9FD2846AF
:101B600013F084FD1E4D4C35284613F071FD1C48C2
:101B7000FEF719FF284613F0EBFD284613F076FD1B
:101B8000184D4C35284613F063FD1648FEF70BFF41
:101B9000284613F0DDFD284613F068FD14E0206DA3
:101BA00020F0010504F14C00074613F051FD2046DA
:101BB000FEF7F9FE384613F0CBFD384613F056FD1C
:101BC0002046FEF775FC2C46002CE8D1304613F079
:101BD000BFFD084813F04AFDBDE8F0819C030020DA
:101BE000F003002044040020980200209C02002002
:101BF000A0020020A40200207200000028B301000F
:101C00007700000017B30100F0B2010010B500200A
:101C100000F09EFFAFF30080BDE81040012013F0FC
:101C2000ADBD0844401E491E884370470821001D71
:101C3000F7E72DE9F0410F468046041FFFF7EDF965
:101C4000066807B3B8F1000F384622D0FFF7EEFF61
:101C5000B84205463CBF0020BDE8F08106F10C000B
:101C600013F0F6FC2268AA4238BF314615D3511B47
:101C7000082931D36019002240F8041B3146256041
:101C8000FEF7E5FB28E04046FEF712FC0020BDE829
:101C9000F081BDE8F041FEF7D0BB4868002818BFCE
:101CA000A04238BF0146F8D3131983421BD1036801
:101CB0001A44954217D8531B082B0AD3436862195C
:101CC0005360236800681844401B106025604A6018
:101CD00002E022604068486006F10C0013F038FD15
:101CE000201DBDE8F081002231463846FEF764FB36
:101CF00005000AD041462068021F2846FFF76AF80F
:101D000000223146201DFEF7A2FB06F10C0013F065
:101D10001FFD2846BDE8F081801A0844401E491E78
:101D200088431044704770B5144605468C46436896
:101D3000002B18BF634538BF1846F8D3026810441B
:101D4000604508D06646604604220821FFF7E4FF9C
:101D5000811B8446641A2946CCF80040BDE87040D7
:101D600000220CF10400FEF772BB10B501F0F3F88D
:101D700000F0080010BD2DE9F0410F46134615464E
:101D80000A4606460021084601F040FE0446401C73
:101D9000FEF753FB306030B1611C2B463A46BDE87C
:101DA000F04101F033BE4FF0FF30BDE8F08100009C
:101DB0000FB47CB50C0009AA009001D02044401E4D
:101DC000084B7B4469460190089801F0C7FD054621
:101DD0001CB10020694601F0F0F828467CBC5DF893
:101DE00014FB0000FF1100007CB51D4616460C00D8
:101DF000009001D02044401E074B7B442A46694690
:101E00000190304601F0AAFD05461CB1002069464C
:101E100001F0D3F828467CBDC711000000B58DB095
:101E2000099000920B904FF0FF300A9000200C9028
:101E3000054878440690054878446A46079009A802
:101E4000FFF704FA0DB000BD37F4FFFF4FF4FFFFBA
:101E50002DE9F34F4FF0000A0C4656468DB0012095
:101E60000C9001F10C000B9062690B9801219047D6
:101E7000051E2DD0252D2CD0216A8847C0B162695E
:101E80000B9801219047216A88470028F7D16269A1
:101E9000411E0B98904700E0761CA1690D98884779
:101EA000216A88470028F7D1E1690D988847DBE768
:101EB000A1690D988847A842074601D1761CD3E74F
:101EC000E1690D9888477F1C02D1BAF1000F6FD0ED
:101ED0006BE162690B9800273D46394690472A28F6
:101EE00004D162690B98012190470125DFF8D08267
:101EF00062690B9801219047A0F130010A290AD2AA
:101F00004745E5DC07EB870100EB4107303FDFD4B5
:101F100045F01005ECE7E90601D46FF000476C28A6
:101F20000AD04C2814D0682815D06A280DD07428FF
:101F30001CD07A281AD01DE062690B9801219047C5
:101F40006C2802D045F0040514E045F002050DE0D0
:101F500045F020050AE062690B9801219047682846
:101F600002D045F0080505E045F4006562690B986C
:101F700001219047C4E9015765283DD019DC582854
:101F80007AD00CDC452837D004DC252826D041281F
:101F90009ED131E046282FD0472899D12CE05B28EC
:101FA00077D0612828D063287CD0642823D15AE0D8
:101FB000F6E06F2848D008DC66281DD067281BD0C3
:101FC000692821D06E2816D127E0702845D07328C3
:101FD00068D0752847D078280DD14DE0A1690D98BB
:101FE0008847252805463FF469AFE1690D98884781
:101FF0006D1C3FF46AAFD8E00D9923466A466FF036
:10200000010018F0B2FFC5E045F0400023464FF054
:1020100000026060A80736D43EE0E8077FF447AFCF
:102020002068011D21600068290501D506701BE7A5
:10203000290701D5068017E7A90703D5F117C0E9DD
:10204000006111E706600FE745F0400023464FF0BE
:1020500008026060A80716D41EE040F60E0125EACB
:102060000100606016E045F0400023464FF00A0290
:102070006060A80707D40FE045F040006060A80743
:1020800008D5234610220D996FF00100FFF72DF8B7
:1020900080E007E0102223460D996FF00100FEF763
:1020A000CFFA77E04FF0000963284F46C8464B4609
:1020B000CB4602D05B2806D038E0E80601D40120E8
:1020C000A060012732E06269D4F80CB00B980121BE
:1020D00090475E2807D14FF0010949466269D4F85C
:1020E0000CB00B989047216939B900210A4603AB1F
:1020F00043F82120491C0829FADBD8B3216949B3E8
:1021000008F1010862690B98012190475D28F4D11C
:10211000B9F1000F09D0002003A951F82020D243C3
:1021200041F82020401C0828F7DB03AB2069002879
:1021300020794FEA40701ED05B462246CDF80080E1
:10214000CDE901970D9900286FF0010020DAFFF723
:1021500025F91FE0C11703AA00EBD1614B1121F053
:102160001F0102EB8302411A1368012088400343D8
:102170001360C7E719E00D99224600286FF00100AF
:10218000009702DA13F0F4FA04E0FEF7FFFA01E038
:10219000FFF790F800280ADA401C06D10C9820B10D
:1021A0004FF0FF300FB0BDE8F08F5046FAE7E90777
:1021B00001D10AF1010A064400200C9054E6000007
:1021C000CCCCCC0C2DE9FF4F06468BB00878FF280D
:1021D00006D0491C2D2805D000244FF0000908E046
:1021E00000200CE00124F8E709EB8903491C00EB0F
:1021F00043090878FF28F7D114B1C9F100008146DE
:10220000107800252C46AA4629462D2801D02B28D7
:1022100004D1521C2D2813D0002082468B46107802
:10222000FF280FD04FF0000C0A21521CA5FB0178AB
:1022300004FB018105FB0C11C5194BEB0104EEE712
:102240000120EAE7002108464FF00000BAF1000F34
:1022500002D000EB80004008C0F38157012F01DD60
:102260004FF0FF370E9955EA040009EB01080BD037
:102270004FF0020918F5FA7F16DA4FEACA70002FFC
:10228000706008DD012007E04FEACA70C6E900B0BF
:102290000FB0BDE8F08F00203060FEF783F8C0F883
:1022A00000901821084616E0B8F5FA7F18DD002FD7
:1022B00002DAF748784401E0F6487844D0E90010A3
:1022C000C6E9001040EACA707060FEF76BF8C0F80B
:1022D0000090142108460FB0BDE8F04F18F0E2BDA1
:1022E000002108464FF00000B8F10001099002DA21
:1022F000C7F1000200E03A4601DAC8F1000106A881
:1023000000F0EEFE06AB93E8070003AB83E807009E
:1023100044F23E005BEA04010090584604D144F2C6
:102320001E012C465D460091210C0904014306D193
:102330000099240444EA15442D041039009104F056
:102340007F41014306D10099240244EA15642D021D
:102350000839009104F07041014306D1009924012D
:1023600044EA15742D01091F009104F04041014316
:1023700006D10099A40044EA9574AD00891E00912D
:1023800004F00041084304D100986D196441401ED7
:1023900000904FF001033A466846B8F1000FCDE9CE
:1023A000014503A902DD18F040F801E018F013F828
:1023B000BAF1000F04460D4601D084F0004400211C
:1023C00008464FF00000099940F2FF77484010F0AE
:1023D0000C0F07D124F00040284303D0C4F30A5067
:1023E000B84212D1FDF7DEFFC0F80090C4F30A50E6
:1023F000B8420AD1A8487844D0E90010C6E90010D4
:1024000004F000410843706042E7C6E900543FE72A
:102410002DE9FF4F1F464FF0000A4FF0FF384546A9
:1024200091B0D7E90146CDF83CA0FEF7FBFDC068AE
:102430000168405C1090B96912986D1C8847396A30
:10244000814688470028F6D1B9F1FF3F0AD0002E17
:1024500024F4D06411DDB9F12B0F08D0B9F12D0FA0
:102460000BD102E0404615B013E744F48064B9692B
:1024700012986D1C8847761E8146600504A901D517
:102480002D2000E02B20002E01F1010B0DF1300872
:102490008DF810003FDDB9F1690F08D0B9F1490F8F
:1024A00005D0B9F16E0F02D0B9F14E0F1CD13B46E9
:1024B00001A8009580E85002DDE912126FF00200D9
:1024C00018F057FDC11CCED10EE0B96912986D1CF1
:1024D000884781461398761E44F4007405600F986F
:1024E000401C002E0F9016DDB9F1300FEDD0B9F180
:1024F000780F02D0B9F1580F0DD10F9801280AD1E9
:102500003B46CDE90054DDE91212001F029618F097
:102510002EFDC11CA7D1109989453ED144F08004FD
:1025200006E01399681CAAF1010A44F400740860DB
:10253000B9696D1C1298761E884730288146F0D004
:102540002BE01099894505D1200603D4761E44F06E
:10255000800418E0484618F0B6F908B3761E0DF16D
:1025600023029345A9F1300044F4007406D20BF81D
:10257000010B200607D5AAF1010003E0200602D4D2
:102580000AF101008246A00502D51399681C086073
:10259000B96912986D1C88478146002ED1DC53E042
:1025A000002E51DDB9F1650F02D0B9F1450F4BD1C5
:1025B000A00549D5B9696D1C1298761E24F44074A3
:1025C0008847002E81460CDD2B2804D0B9F12D0F51
:1025D00007D144F48074B96912986D1C8847761E3F
:1025E0008146E00501D52D2100E02B2108F8011BD3
:1025F000CDF8008021E0761E0DF13901884544F4C4
:1026000000740CD2A9F1300010F0FF0088F800002F
:1026100002D10099884509D908F1010806E0E005D2
:1026200001D51E4801E042F20F708246B969129846
:102630006D1C8847814613980560002E04DD4846CE
:1026400018F041F90028D6D1F96912988847FF207F
:1026500053468BF8000088F8000000200A900B9089
:1026600004AA0CA90AA8FFF7ADFDA00502D46FF0DB
:102670000100F8E614F0240F12D0E0071CD13868EE
:10268000DDE90A12031D3B600068C0E9001213E097
:1026900040B3010032B30100F6B10100F1D8FFFFF1
:1026A0000AA9684618F0FCF8E00705D13868009AD6
:1026B000011D3960006802602846D4E60FB40B00A3
:1026C00010B54FF000048AB00FA900910E99CC60AC
:1026D000234C7C44234A7A44CDE9064200D00423AB
:1026E0006FF00042CDE901321F4A7A446B460892EE
:1026F0000246002018F039FC0AB010BC5DF814FB4B
:10270000F0B507464FF0FF301E4615460C463B46D7
:1027100085B06A460091CDE9010131460020049060
:1027200004A8FFF7CBFF04990346601825B109B14F
:10273000024600E022462A6000290ED0002B02DD6E
:102740000099814209D03B466A463146001B0094FD
:10275000CDE9010404A8FFF7B1FF05B0F0BD00000A
:1027600097EBFFFFB1EBFFFFCB3F010000F032BC66
:1027700000F078BC10B508E030F8024B9C4204D160
:102780000AB1002010BD012010BD491EF4D2104630
:1027900010BD2DE9F05F0E4680461C46924602FBB6
:1027A00006F503F14C00834612F052FF16B3A768FA
:1027B000002041E0002F41DCE069A8421CDAB9F1B9
:1027C000000F19D0224629464046FFF763F808B1AA
:1027D000A76029E0E06810F4C06F01D0002008E095
:1027E00022696168891AE269511AC003A16001D4A3
:1027F0004842A060544618E0A84203DAE06840F47A
:102800000000E060214698F80000FEF74CFFE16808
:1028100021F40001E160411C06D0A76800280ADB12
:102820006D1E08F1010818E00024584612F090FFD0
:102830002046BDE8F09F012081460EE0AF423E46B3
:1028400000DD2E46414632466068FEF73CFA60687D
:10285000BF1BAD1B3044B0446060002DAADCA760F4
:10286000C8E700002DE9F04707461348814612F0FB
:10287000EFFE124C40F2022817E094F85000C00717
:1028800010D0BC420ED004F14C05284612F0E0FEF8
:10289000E668284612F05CFF38EA060002D12046BE
:1028A000FEF7CAF8206D20F00104002CE5D148465F
:1028B00012F04EFFBDE8F087A40200209C03002028
:1028C0002DE9FE430E461746804600210846AFF329
:1028D000008005460020009001905EB130784FF0F6
:1028E000FF3900B1AFB11DB1D5E90001CDE900015B
:1028F00000240CE00020BDE8FE83315D6A46641CC4
:1029000002A800F0B8FC411C03D0012803D0BC424F
:10291000F3D34846EFE71DB1DDE90001C5E9000149
:10292000B8F1000F03D0BDF80810A8F80010BDF8EA
:1029300008000028DFD02046DDE770B50C460546CC
:102940000AB1104603E004210020AFF300802246C4
:102950002946BDE870400346002000F039B82DE953
:10296000F84F9146884607464FF000045FEA030A95
:102970000D681BD107210020AFF30080824615E0CF
:1029800015F8011B5246684600F075FC0646401CCF
:1029900013D0B61C0AD01FB1BDF8000027F81400F0
:1029A000BDF80000641C70B1C8F80050002FE7D0DB
:1029B0004C45E5D32046BDE8F88FFDF7F3FC042134
:1029C00001603046F7E70021601EC8F80010F2E70A
:1029D00000F0F8BB00F032BC2DE9F84F9B461746DB
:1029E000894680460024DDF828A00D685FEA0A00C9
:1029F0001ED10921AFF30080824619E007B315F814
:102A0000011B524668467F1E00F035FC0646401CFE
:102A100019D0B61C0CD0B8F1000F03D0BDF80010CF
:102A200028F81410BDF80000641C90B1C9F80050DB
:102A3000B8F1000FE2D05C45E0D32046BDE8F88F46
:102A4000C9F80050F9E7FDF7ADFC042101603046FC
:102A5000F4E70021601EC9F80010EFE72DE9FF4FF1
:102A600091468846824683B00024109F0E688FBB33
:102A70000A210020AFF3008007462BE017B1D7E909
:102A800000B102913A466846318800F030F80546B8
:102A9000401C0BD0BAF1000F16D0069829198142BC
:102AA0000CD9EFB10299C7E900B119E0FDF77AFC42
:102AB00004210160284607B0BDE8F08F0AEB04004E
:102AC0002A466946FEF7FFF830882C4450B1B61C00
:102AD000C8F80060D8F8000010B1B9F10109CDD2F2
:102AE0002046E8E70021641EC8F80010F8E72DE949
:102AF000F04116460C460546FDF74CFC036893F87A
:102B00000101012807D0FF2C12D8185D80B10120E7
:102B10002C70BDE8F081D3F807013246214603F25C
:102B20000713C7182846BC46BDE8F041002360479C
:102B30004FF0FF30EDE710B5FDF72CFC006890F882
:102B40000111012901D0012010BDD0F80B0110BDE9
:102B500010B500F0B5FBBDE8104000F0ACBB10B5FF
:102B600000F0C6FBBDE8104000F0A5BB10B500F0BA
:102B7000D9FBBDE8104000F09EBB520000F006BC3F
:102B80002DE9F0410F46144605468046800704D0E3
:102B900084B12F80541E08F10205022C0AD3284666
:102BA00024F0010647EA07427100FEF7B6F9A41BBC
:102BB00005EB460504B12F804046BDE8F0810000DA
:102BC00070B5054601B90721541A241DB4F5B67F26
:102BD00009DD286800F05DF9A04204DC2868401C8B
:102BE0002860012070BD002C05DA2868401E28608E
:102BF00000F04FF90444072094FBF0F0401C70BD36
:102C00002DE9F04F1F4615468B468246002689B0B7
:102C1000FEF708FAD0F810800024BBF1000F70D046
:102C200015F8010B10B125280DD10FE024B1641E59
:102C300006A850F82450F3E7002130460AF80610A1
:102C400009B0BDE8F08F0AF80600C7E0E94615F8BC
:102C5000010B592870D023DC49286ED014DC44289D
:102C60006DD008DC2528EED041283ED0422849D03E
:102C700043282CD156E04528E9D0462869D047287A
:102C800076D0482823D17AE04D380C281FD2DFE8CF
:102C900000F0881E061E1E9BA0A9B3B5C1CFD6E7C3
:102CA0005A38212813D2DFE800F011121212121242
:102CB000121A2637455012592612741212797E12B2
:102CC0008012891296A212B3BDCB1100A8E725206D
:102CD0000AF80600761C5E4513D26D1EA0E7D8F8F0
:102CE0000010BA69D8F8240011E0D8F80410BA69C5
:102CF000D8F828000BE0D8F808103A69D8F82C006A
:102D000005E0B2E0D8F80C103A69D8F8300002FBC0
:102D1000001101EB0809AAE006A840F82450D8F8F1
:102D200018108AE07969642091FBF0F2133248466A
:102D300068A192E0FA6889E08AE022E0FFE706A84D
:102D400040F8245065A5641C6AE7FA6866A1484605
:102D500083E006A840F8245064A5F4E7384600F064
:102D6000ADF8642190FBF1F201FB120258E0FFE79D
:102D7000384600F0A3F802465FA168466DE0BA68E5
:102D800064E0B8680C210B3090FBF1F201FB1202F9
:102D900005E0FA6959A14846521C5EE03A694DA126
:102DA000F9E77A6852E00A2116E0B8680C2802DADE
:102DB000D8F81010ADE7D8F81410AAE706A840F824
:102DC0002450D8F8341038E006A840F824504DA517
:102DD000B9E73A683AE009210AF80610761C5E4520
:102DE000B2D342E006A840F8245048A5ABE7BA6940
:102DF00002B9072248A1AAE700210CE0786900F295
:102E00006C700890D7E9061208A8FFF7D9FE06E013
:102E1000BA69EFE70121D7E9062000F02EF8024653
:102E20002CA1AAE706A840F82450D8F81C1004E00A
:102E300006A840F82450D8F8201001EB080582E7D6
:102E40007969642091FBF0F200FB121221A17EE768
:102E50007A69484628A102F26C7200F0C1FD06E0D2
:102E60000AF80600761C5E4501D30020E8E619F852
:102E7000010B00283FF4DFAEF2E7511A00D5C91D5F
:102E8000401A01D500207047072190FBF1F0401C4B
:102E9000704781070CD1642190FBF1F201FB120114
:102EA00051B94FF4C87190FBF1F201FB120018B157
:102EB000002000F26D1070470120FAE708B5416963
:102EC00001F26C710091D0E906126846FFF778FEB6
:102ED000009808BD252E326400000000256D2F25C6
:102EE000642F2579000000002532640025592D2526
:102EF0006D2D25640000000025640000252E33643C
:102F00000000000025483A254D00000025483A25DC
:102F10004D3A255300000000252E316400000000CA
:102F200010B5FEF77AF80068BDE8104000F032BA3C
:102F3000B2F120030AD5C2F1200301FA02F120FA0E
:102F400003F341EA030100FA02F0704700FA03F1CB
:102F50004FF00000704710B50446FF2801D900204B
:102F600010BDFDF717FA0068005D10F0980F03D050
:102F7000C10701D140F4806010F4846F01D040F4A7
:102F8000006010F0BA0F01D040F4807010F0BE0F56
:102F900001D040F40070810604D5010602D440F04F
:102FA000800001E020F02000C10701D0410601D5DA
:102FB000092CD5D140F4805010BD0A6802F8010BED
:102FC0000A607047D1E900239A4202D2531C0B6079
:102FD000107070472DE9F04791460E468046044632
:102FE000002514F8017B2FB1FDF7D4F90068C05D0E
:102FF000C007F6D12B2F02D02D2F1ED0641E4A46BB
:103000003146204600F000FC26B13268A24201D1D0
:10301000C6F800804FF002046A0518D50023D0EBF3
:10302000030563EB01025D1B934109DB0023D0EB39
:10303000030063EB0101BDE8F08745F48065DEE73E
:10304000FDF7B0F9046000204FF00041F3E7021EE5
:1030500071F10002EFDAFDF7A5F904604FF0FF30DF
:103060004108E8E72DE9F05F93460F4680460446A5
:103070000026FDF797F9D0F80090824614F8015B1E
:103080002DB1FDF787F90068405DC007F6D12B2D03
:1030900002D02D2D1FD0641E0021CAF800105A4600
:1030A0003946204600F0B0FB024627B13868A042FE
:1030B00001D1C7F80080DAF8000002280ED0CAF863
:1030C000009070050AD500200346D2EB000063EBA8
:1030D0000101BDE8F09F46F48066DDE71046F8E7A1
:1030E0002DE9F047814616468AB0354878440DC828
:1030F0008DE80D0032487844801C03AC0DC884E88C
:103100000D0041F69B300844372190FBF1F290FB13
:10311000F1F5A5F1800501FB12041B3C02D56442C8
:10312000012000E00020DFF898A080460027FA4444
:10313000AAF1BE0A0EE0E0070AD03246684607EB65
:10314000470101230AEB810117F05AF98DE80700C6
:1031500064107F1C002CEED1194F7F44AE3F19E064
:10316000E80715D007EB04100DF1180A90E80E00DF
:103170008AE80E00C068F04201D1981908903246E2
:10318000012306A903A817F03BF903AB83E8070066
:103190006D10641C002DE3D14FF0010332466946E7
:1031A000B8F1000F03A802D017F000F901E017F002
:1031B00027F9C9E90001C9F808200AB0BDE8F0877D
:1031C000347F01002DE9F8439946174680464FF0B9
:1031D00000060C0002D18846012717A4B9F1000FA0
:1031E00025D105210020AFF3008081461FE014F8AF
:1031F000011B4A46684600F03EF8761C0546401C16
:103200000FD0AD1C13D0B8F1000F03D0BDF80010E3
:10321000A8F80010BDF80000002800D03046BDE836
:10322000F883FDF7BFF8042101602846F7E77F1E09
:10323000DDD26FF00100F2E7000000007CB50C4623
:10324000054622B906210020AFF300800246214640
:103250006846FFF74CFC0446401C07D025B12246C7
:1032600069462846FDF72FFD20467CBDFDF79AF8FC
:1032700004210160F8E7F8B516460C460546FDF74F
:1032800089F8036893F80101012804D0185D78B12A
:1032900001202C80F8BDD3F803013246214603F209
:1032A0000313C71868460023B84700992980F8BD62
:1032B0004FF0FF30F8BD002801D012F05FBA704720
:1032C00010B5002102A000F000FB012010BD00009D
:1032D000534947414252543A2041626E6F726D61C8
:1032E0006C207465726D696E6174696F6E000000A8
:1032F00010B5014602A000F0E8FA012010BD000060
:1033000053494752545245443A20526564697265A4
:1033100063743A2063616E2774206F70656E3A2083
:103320000000000010B5012805D0002103A000F026
:10333000CCFA012010BD09A1F8E70000534947521B
:10334000544D454D3A204F7574206F662068656175
:1033500070206D656D6F7279000000003A2048653D
:103360006170206D656D6F727920636F7272757018
:1033700074656400520000F0C1BA002101E0801CB5
:10338000491C0288002AFAD10846704701B5FDF7AA
:103390009AFC01BD10B50C3012F068F910BD10B5E3
:1033A000FDF700F8006810BD10B50446FCF7FAFF01
:1033B000046010BD2DE9FF4F1F464FF03C0987B058
:1033C0004FF00042DDE9141001F10108DDF858A0CA
:1033D00002EA4050039000200590834605460446CB
:1033E0000490B969461E08988847AAF1010A02901C
:1033F000BAF1000F3BDD02982E2815D01021FDF701
:1034000066FE00282EDB4FF0010B0599014317D013
:10341000B9F1000F0BDB4A46C117FFF789FD0543E1
:103420000C43A9F1040905E0012004900BE008B168
:1034300045F0010501200590049820B9361D02E0F1
:10344000049800B1361FB969089808F10108884747
:10345000BBF1000FAAF1010A0290C9D00999C1F885
:103460000080C5E70298702808D0502806D0F96976
:1034700008988847BBF1000F14D04FE0002002905D
:103480000120BBF1000F049009D0B969089808F138
:1034900001088847AAF10109B9F1000F07DCF969B1
:1034A000089888476FF001000BB0BDE8F08F2B281B
:1034B00004D02D280CD14FF0FF300490B969089842
:1034C00008F101088847A9F10109B9F1000FE6DD0B
:1034D000411CE4D00A21FDF7FAFD0028DFDB029948
:1034E00008F1010801EB810100EB41000290B9698C
:1034F000089888470A21FDF7EAFD099AA9F1010910
:10350000B9F1000FC2F8008001DD0028E7DAF9699F
:10351000089888470499029800FB016655EA040060
:1035200004D004F04041090002D006E0039898E07E
:10353000A40044EA9574AD00B61E04F000410800F2
:1035400002D16D196441761E159810F0240F03D036
:103550004FF00B095C4803E04FF028096FF07D0045
:103560008246564507DAAAEB06018944B9F1410FB4
:1035700001DD4FF0410901200021A9F10102FFF70F
:10358000D7FC024628400B462140084301D00121C8
:1035900000E00021501E029143F1FF3128402140FC
:1035A000084301D0012000E000200299834651EA3F
:1035B0000B014FD0002108464FF00000039900F4A2
:1035C000400039B100EB80004FF4400100EBD070B7
:1035D00001EA60008015012802DD4FF0FF3000E0B5
:1035E00013D0401C36D0029860B3BBF1000F0CD151
:1035F0004A4601200021FFF79BFC28402140084358
:1036000001D0012000E00020E0B101204A46002165
:10361000FFF78EFC034640190A4661412D1A8C4182
:1036200011D3B9F1400F09DD159810F0240F02D025
:10363000AAF1340603E0AAF1170600E0761C002583
:103640004FF0004406E05B1E42F1FF3220EA030522
:1036500021EA0204CAF10100B04206DA1B490398CC
:1036600008430190002000900EE0039AC4F3D32198
:10367000E80A0A43164940EA44500A433146CDE974
:103680000002684617F015F9159810F0240F0BD0BA
:103690001598C00715D13868DDE90012031D3B609D
:1036A0000068C0E900120CE002A8694617F0F8F8BB
:1036B0001598C00705D13868029A011D3960006865
:1036C00002604046F0E6000002FCFFFF0000F07FD1
:1036D0000000F03F2DE9FF4F92461D4685B04FF0A8
:1036E0000041DDE9124BDDE914727F1E01EA4B5007
:1036F000414940F0FF4940EA0108002122F0200042
:103700004928049102D04E2828D04CE03BA0012645
:1037100007C88DE80700A9690698641C88477F1EC2
:10372000014606D41DF8060018B121F0200181429F
:103730000BD0E96906988847032E34D0082E32D082
:103740006FF0010009B0BDE8F08F761C032E01D0A8
:10375000082EE0D1601CCAF80000DCE7A9690698D1
:10376000641C88477F1E2AD420F02000412826D1DF
:10377000A9690698641C88477F1E20D420F0200089
:103780004E281CD1A9690698641C88477F1E48F4FE
:10379000002849F48009CAF8004001D4282806D03E
:1037A000E969069888475FEACB7012D022E0A969E0
:1037B0000698641C88477F1E01D4002803DAE96953
:1037C00006988847BCE72928F1D1641CCAF8004054
:1037D000E9E71BF0240F07D028680499031D2B602C
:1037E0000068C0E9001805E02868021D2A6000682A
:1037F000C0F800902046A5E70000F07F494E4649FA
:103800004E495459000000002DE9F74F4FF00009D0
:103810001546CA46009C14F8010B302801D0ADB102
:1038200015E014F8010B4FF00109782803D058284F
:1038300001D04DB10BE00DB1102D08D14FF00009B2
:1038400014F8010B102502E0082500E00A250027E6
:103850004FEAE57B3E46B84616E0A5FB07234FF04E
:10386000010905FB08000BFB0731030C05FB0616DD
:10387000D7181FFA80F846F10006381E76F580301A
:1038800000D3CA4614F8010B2946FDF720FC002896
:10389000E3DA019838B1B9F1000F01D0641E00E0FD
:1038A000009C01980460BAF1000F08D0FCF77AFD83
:1038B00002210160C81E014603B0BDE8F08F31044B
:1038C00041EA174148EA0740F6E770B505460C465D
:1038D0000A2000E06D1C12F021F935B1287800288B
:1038E000F8D102E0641C12F019F914B12078002814
:1038F000F8D1BDE870400A2012F010B901B5FDF70B
:1039000027FA01BD80B582B013460A4684460020DE
:103910006FF00041CDF800C013F074F902B080BD23
:1039200080B54FF6681243F2A07143F2A070C2F264
:103930000102C2F20001C2F20000914218BF084623
:103940004FF60041C2F2010118BF1146FCF75EFCC0
:1039500080BD0000002070470020704700207047A5
:1039600000207047002070470020704700207047FB
:1039700000207047002070470020704700207047EB
:1039800000207047002070470020704700207047DB
:1039900000207047002070470020704700207047CB
:1039A00000207047002070470020704700207047BB
:1039B00000207047002070470020704700207047AB
:1039C000002070470020704700207047002070479B
:1039D000002070470020704700207047002070478B
:1039E00082B080B582B08C46CDE9042304AB4FF0A1
:1039F000000E6FF0004162460193CDF800E013F035
:103A000001F902B0BDE8804002B0704780B582B0D5
:103A10004FF0000CCDF800C013F0F4F802B080BDF8
:103A20004EF69851CEF20001086000208860704781
:103A30004EF69C52CEF200021060516070470000BA
:103A40007047000080B540F23112C8F20102014611
:103A500016F0F4F880BD000080B540F23812C8F2CC
:103A6000010216F0EBF880BD80B540F23312C8F2C7
:103A7000010216F0E3F880BD80B540F23212C8F2C0
:103A8000010216F0DBF880BD80B514F009FC16F0D9
:103A900061F880BD10B540F6244042F6944EC4F261
:103AA0000000C2F2000E42F6924C0268DEF80030CE
:103AB000C2F2000CBCF80000D11A01440024B4EB9F
:103AC000114FCEF8002017D1B1F57A7F20D31044E2
:103AD000C01A44F6D351A0F57A70C1F26201A0FB7E
:103AE00001124FF618439109CFF6FF7301FB030152
:103AF000012000EB92120CE044F6D350C1F26200B8
:103B0000A1FB000292094FF47A7002FB101100E051
:103B1000002242F61C53C2F200031868ACF80010F1
:103B20001044186010BD000080B543F60040C4F298
:103B30000200016841F400710160016841F4806194
:103B40000160016841F480710160032000F010F809
:103B50000F2000F005F800F009F8002080BD0000FB
:103B600080B512F0CFFB002080BD00007047000040
:103B700080B511F03DFB80BD4EF61050CEF2000036
:103B80000268012922F00402026004D130BF00BFA4
:103B900000BF00BF704740BF20BF20BF704700007C
:103BA0002DE9F041002800F08B8043F60808C4F2AC
:103BB00002080446D8F8F8030D4600F00F008842CA
:103BC00007D288F8F853D8F8F80300F00F00A8429D
:103BD00076D12068810717D5410705D5D8F80010A0
:103BE00041F4E051C8F80010010705D5D8F80010DD
:103BF00041F46041C8F80010D8F80010A26821F024
:103C0000F0011143C8F80010C0073FD1D8F8F803FD
:103C100000F00F00A84207D988F8F853D8F8F80345
:103C200000F00F00A8424BD12068410707D5D8F813
:103C30000010E26821F4E0511143C8F800100007B9
:103C400008D5D8F80000216920F4604040EAC1009E
:103C5000C8F8000000F0EAF8D8F800104BF2101293
:103C6000C1F30311C0F60102515C40F2A82220FA10
:103C700001F140F29830C2F200000068C2F2000286
:103C80001160FFF76DFF0020BDE8F0816068811EC4
:103C9000022907D258F8081C89015CBF0120BDE841
:103CA000F08110E0012807D158F8081C89035CBF97
:103CB0000120BDE8F08106E058F8081C890702D40D
:103CC0000120BDE8F081D8F8001021F0030108437D
:103CD000C8F80000FFF7DEFE064641F2883700BF55
:103CE000D8F80000616800F00C00B0EB810F8DD0B7
:103CF000FFF7D0FE801BB842F2D90320BDE8F08167
:103D00000F22026043F60802C4F20202136803F0B5
:103D100003034360136803F0F0038360136803F444
:103D2000E053C360D2F800C04FF4E05303EADC0371
:103D30000361D2F8F80300F00F000860704700003C
:103D400040F2A820C2F200000068704743F600016C
:103D50000F22C4F2020102600A68520306D40A6804
:103D6000D20354BF00224FF4803201E04FF4A0226E
:103D700042600A6802F00102C2600A68C2F3C4022B
:103D800002610A6F520706D40A6FD2070CBF0022E5
:103D90000122826001E0052282604A6F4FF4C02355
:103DA00002F0010242610A68D2014FF0020258BFDC
:103DB000012282614A6802F48002C2614A6802F00C
:103DC0003F0202624A68C2F3881242624A6803EA0A
:103DD000420202F50032120C82624968C1F30361AB
:103DE000C162704780B5FFF7ABFF43F60801C4F22C
:103DF000020109684BF22012C1F38221C0F60102D0
:103E0000515CC84080BD000080B5FFF799FF43F6C4
:103E10000801C4F2020109684BF22012C1F34231D9
:103E2000C0F60102515CC84080BD000010B543F6E9
:103E30000404C4F20204606800F00C0142F2004085
:103E40000829C0F2F40007D0042918BF10BD41F2C0
:103E50000020C0F27A0010BD216801F03F02216805
:103E600023684902C3F3881105D4A1FB0001002394
:103E7000FCF728FB06E041F20020C0F27A0048433C
:103E8000B0FBF2F021680222C1F3014102EB4101D3
:103E9000B0FBF1F010BD00002DE9F04182B0002828
:103EA00000F097800446007843F60006C007C4F28D
:103EB000020641D0B06800F00C00042805D130683B
:103EC000800339D56068B8BB83E0B06800F00C00AF
:103ED000082802D170684002F1D46568B5F5803FCA
:103EE00006D03068B5F5A02F06D140F480203060B0
:103EF000306840F4803005E020F480303060306875
:103F000020F480203060FFF7C5FD002D054610D05D
:103F10003068800310D4FFF7BDFD401B6428F7D93B
:103F20001AE100BFFFF7B6FD401B64284FF0030005
:103F30004CD830688003F5D4207880071AD5B06853
:103F400010F00C0F09D0B06800F00C00082840F009
:103F500084807068400200F180803068800702D55C
:103F6000E068012835D13068216920F0F80040EA86
:103F7000C1003060207800072FD42078400742D459
:103F8000A56915B3B06800F00C00082840F09880CF
:103F9000012D1ED07068E16900F480028A4218D1B8
:103FA000216A00F03F028A4213D147F6C071626A6B
:103FB000014091420DD1A16A00F440328A4208D1F9
:103FC000E16A00F07060884203D1002002B0BDE8D1
:103FD000F081012002B0BDE8F0816069002840F264
:103FE0000000C4F247205AD00121C0F8801EFFF71C
:103FF00051FD0546706F8007BFD4FFF74BFD401B96
:104000000228F7D9A8E0306C4FF00008C0000CD4AB
:10401000CDF80480306C4FF0010840F080503064DF
:10402000306C00F080500190019847F20007C4F214
:1040300000073868C00525D4386840F480703860BF
:10404000FFF728FD054600BF3868C0051AD4FFF702
:1040500021FD401B0228F7D97EE0E068002851D0FE
:104060000020C4F2472001210160FFF713FD05463F
:10407000306880073FF577AFFFF70CFD401B022843
:10408000F6D969E0A568012D05D0306F052D4DD119
:1040900040F004003067306F40F001004CE0002138
:1040A000C0F8801EFFF7F6FC054600BF706F800762
:1040B0007FF563AFFFF7EEFC401B0228F6D94BE01B
:1040C0000027C4F2472700203866FFF7E3FC022DE3
:1040D00005460BD13068800156D5FFF7DBFC401B4D
:1040E00002284FF00300F5D970E700BF3068800167
:1040F0007FF56BAFFFF7CEFC401B02284FF00300AB
:10410000F4D963E70020C4F2472000210160FFF7E3
:10411000C1FC0546306880077FF52CAFFFF7BAFC7D
:10412000401B02284FF00300F4D94FE720F00100B4
:104130003067306F20F004003067FFF7ABFC002DD4
:10414000054641F2883713D0306F800713D4FFF74C
:10415000A1FC401BB842F7D9032002B0BDE8F081B2
:10416000FFF798FC401BB8424FF003003FF62EAF1C
:10417000306F8007F4D4B8F1000F3FF401AF306C1A
:1041800020F080503064FBE604F11C052FCD08437D
:1041900040EA8210D9034FF6FF729143A1F58031B6
:1041A00040EA05600843706001203866FFF772FC42
:1041B000044600BF306880013FF507AFFFF76AFC97
:1041C000001B02284FF00300F4D9FFE6002804BFCB
:1041D0000120704710B5044690F83D0028B9002032
:1041E00084F83C00204600F00DF8022084F83D00E1
:1041F0002068211D00F0A4FB012084F83D00002070
:1042000010BD000070470000B0B5044600684425AA
:104210000122C4F2010500F001FC2068A5F144016F
:10422000884203D1296841F400412960816801F086
:104230000701062903D0016841F001010160002057
:10424000B0BD0000002804BF0120704710B504462F
:1042500090F8390028B9002084F83800204600F092
:1042600021F8242084F839002068C16821F4005125
:10427000C160204600F046FC2068016921F49041AD
:104280000161416921F02A014161C16841F4005195
:10429000C16000202021E06384F8391084F83A10CE
:1042A00010BD000070470000EFF3108000281CBF15
:1042B00001207047EFF31180002818BF01207047DC
:1042C000EFF3108000281CBF01207047EFF311802E
:1042D000002818BF01207047EFF3108000281CBF92
:1042E00001207047EFF31180002818BF01207047AC
:1042F000EFF3108000281CBF01207047EFF31180FE
:10430000002818BF01207047EFF3108000281CBF61
:1043100001207047EFF31180002818BF012070477B
:10432000EFF30580002818BF01207047EFF30580E8
:10433000002818BF01207047EFF30580002818BF40
:1043400001207047EFF30580002818BF0120704757
:10435000EFF30580002818BF01207047EFF31480A9
:10436000012121EA0000704791FAA1F1B1FA81F12F
:104370000068490003228A401040C840704700008E
:1043800091FAA1F1B1FA81F1D0F820C089000F2390
:104390008B402CEA030302FA01F1194301627047D2
:1043A000090A91FAA1F1B1FA81F1D0F824C089008B
:1043B0000F238B402CEA030302FA01F119434162F7
:1043C0007047000091FAA1F1B1FA81F1D0F800C074
:1043D000490003238B402CEA030302FA01F119433D
:1043E0000160704791FAA1F1B1FA81F1D0F800C0F3
:1043F000490003238B402CEA030302FA01F119431D
:104400000160704743688B435143194341607047D3
:1044100091FAA1F1B1FA81F1D0F80CC0490003235F
:104420008B402CEA030302FA01F11943C160704783
:1044300091FAA1F1B1FA81F1D0F808C04900032343
:104440008B402CEA030302FA01F1194381607047A3
:1044500047F20000C4F20000006800F0010070475D
:10446000416941F002014161704700000844704712
:104470007047000010B50446283011F0A3FB58B176
:10448000E46A4CB1A01C11F0FBFB18B1A468002C2D
:10449000F8D10024204610BD0024204610BD0000A5
:1044A00010B584465CF8303F5BB191F803E0DA78F0
:1044B00072450BD21A465B686BB1DC787445F9D350
:1044C00005E00022C1E90122C1620DE00022C1E93C
:1044D0000132083303E0C1E9013200F12C03196015
:1044E000002A18BF02F1040C2830CCF8001011F09B
:1044F000A1FB10BDD1E9012C02F10803002A08BF7D
:1045000000F12C03C3F800C0D1E90112131D002AE9
:1045100008BF00F130031960704700004EF2100030
:10452000CEF200000068704740F2F840C2F200008E
:104530000178012908D1002101704EF60450CEF215
:1045400000004FF0806101604EF21000CEF20000DA
:10455000016841F001010160704700004FF0FF3039
:104560007047000058B140F2A821C2F2000109686A
:10457000B1FBF0F0411E0020B0EB116F02D04FF004
:10458000FF3070474EF62352CEF20002FF23137025
:104590004EF21002CEF2000206231360516040F288
:1045A000F841C2F20001906008707047B0B54EF655
:1045B0002254CEF20004FF202070207880F0FF000B
:1045C000B0FA80F0C0F1200510F00AFEA84228BF22
:1045D000451CFE20A84004F8030CB0BD4EF6045064
:1045E000CEF200004FF080510160704780B501208D
:1045F00000F014F8002818BF80BD00F063F800B187
:1046000080BD01A011F06CFC536574537973436C49
:104610006F636B206661696C65640A0070B592B067
:10462000002543F640010695C4F202010A680226FD
:1046300042F080520A600968044601F080510691F8
:10464000069947F200010695C4F200010A6806A81F
:1046500066F38F320A60096801F4404106910699B9
:10466000FFF774FB0C9802281AD0012006904FF433
:10467000A020002C08BF4FF4803007904FF480003A
:104680000D900420C8210C960E90CDE90F10082043
:10469000119006A8FFF700FC10B1002012B070BD09
:1046A0000F20CDE901064FF480500395CDE90405B4
:1046B00001A80321FFF774FAB0FA80F0400912B0A4
:1046C00070BD0000B0B592B0002443F640000694DF
:1046D000C4F202000168022541F0805101600068C7
:1046E00000F080500690069847F200000694C4F24D
:1046F0000000016865F38F3101600068C82100F493
:104700004040069006980320069001200990102052
:1047100007940A90CDE90C5408200F9104210E90C3
:10472000CDE9101006A8FFF7B7FB70B90F20CDE94F
:1047300001054FF480500394CDE9040401A803213E
:10474000FFF72EFAB0FA80F04409204612B0B0BD4F
:1047500080B582B0072800F28880DFE800F0042EE0
:1047600044187086865A0020019043F63000C4F247
:104770000200016841F001010160006800F00100E1
:10478000019001980020C4F2020002B080BD002018
:10479000019043F63000C4F20200016841F00801C4
:1047A0000160006800F00800019001980020C4F248
:1047B000020000F5406002B080BD0020019043F689
:1047C0003000C4F20200016841F00201016000689B
:1047D00000F00200019001980020C4F2020000F5F0
:1047E000806002B080BD0020019043F63000C4F22A
:1047F0000200016841F004010160006800F004005B
:10480000019001980020C4F2020000F5006002B09F
:1048100080BD0020019043F63000C4F20200016820
:1048200041F080010160006800F080000190019873
:104830000020C4F2020000F5E05002B080BD00206C
:10484000019043F63000C4F20200016841F010010B
:104850000160006800F01000019001980020C4F28F
:10486000020000F5805002B080BD01A011F038FBBD
:1048700050696E6D6170206572726F723A20777246
:104880006F6E6720706F7274206E756D6265722E28
:1048900000000000C0064FF0200058BF60207047A5
:1048A00043F60400C4F20200416801F00C0242F237
:1048B0000041082AC0F2F40106D0042A1DD141F2B9
:1048C0000021C0F27A0118E002680368520241F246
:1048D0000022C0F27A0258BF0A46016803F03F0383
:1048E000B2FBF3F2C1F3881103685143C3F30142F1
:1048F000022303EB4202B1FBF2F140F2A822C2F222
:104900000002116040684BF21011C0F30310C0F6B2
:104910000101085C116821FA00F010607047000086
:104920004EF68850CEF20000016841F4700101603B
:1049300040F20001C0F6000140F8801C7047000002
:1049400010B540F2FF7E0368C4F2000E40F2000C86
:104950007045C4F2010C0ADD40F60002C4F2000208
:1049600090420DD060450BD040F6004204E0B0F11B
:10497000804F05D040F20042C4F20002904203D1C1
:104980004A6823F0700313434FF6FF72C4F200022B
:10499000904209DC704512DCB0F1804F26D040F225
:1049A0000042C4F200021FE044F2FF32C4F20102EE
:1049B00090420FDC604519D044F2000212E040F64C
:1049C0000002C4F20002904210D040F60042C4F24D
:1049D000000209E044F60002C4F20102904205D050
:1049E00044F20042C4F20102904203D1CA6823F4A7
:1049F0004073134323F080024B69D1F800E08C68C8
:104A00001A4360450260C462C0F828E002D1096917
:104A1000CCF830100121416110BD000080B501F0DB
:104A20001F014FF0010CD0F820E00CFA01F32EEA40
:104A300003030362036A02FA01F11943016280BDB4
:104A40007047000080B5930706D4D20700F1280014
:104A500015D111F08BF880BD836A02F0010203EAE0
:104A6000010040EA020C8842184618BF0020002AC4
:104A700008BF1846BCF1000F08BF604680BD11F0AA
:104A800061F880BD10B540F2F42CC2F2000CDCF8E5
:104A90004420002A134618BF012319D014698C4200
:104AA00002D94FF0000E0AE09646D268091B002A90
:104AB000134618BF01230DD01469A142F4D2C0E9F6
:104AC00002E201614BB113699060591A116104E06F
:104AD0004FF0000EC0E902E201610EF10C01BEF1DF
:104AE000000F08BF0CF14401086010BDC168002927
:104AF0001CBF82688A60C06840F2F421C2F20001E3
:104B000048647047B0B50546006805F108030ECB50
:104B10000469194324F44054224302616A69EB6931
:104B20001143C26849F20C641943A2431143C160A6
:104B30004169AA6921F440711143416141F2004188
:104B4000B3F5004F40F48060C4F2010124D18842E3
:104B500046D1FFF759F96B681921A0FB01015A00F2
:104B6000DB0FFBF7AFFC48F21F51C5F2EB11A0FBC6
:104B700001235A096FF0630302FB0300322303EBA6
:104B8000C000A0FB01014FF4F87000EA111000EB27
:104B90000210C1F3421167E0884244D1FFF734F9B3
:104BA0006B681921A0FB01019A009B0FFBF78AFC9F
:104BB00048F21F51C5F2EB11A0FB01235A096FF017
:104BC000630302FB0300322303EB0010A0FB01018F
:104BD000F02000EA511000EB0210C1F3431143E052
:104BE000FFF700F96B681921A0FB01015A00DB0FE8
:104BF000FBF768FC48F21F51C5F2EB11A0FB012343
:104C00005A096FF0630302FB0300322303EBC00079
:104C1000A0FB01014FF4F87000EA111000EB021044
:104C2000C1F3421120E0FFF7DDF86B681921A0FB0A
:104C300001019A009B0FFBF745FC48F21F51C5F29A
:104C4000EB11A0FB01235A096FF0630302FB030081
:104C5000322303EB0010A0FB0101F02000EA511009
:104C600000EB0210C1F343112A6808439060B0BD05
:104C700010B540F6CA14C2F2000420460DF09EF9A9
:104C800042F2190040F20002C0F60100C0F6000234
:104C90002146BDE8104010F0E3BA40F6C910C2F258
:104CA00000000DF08BB910B540F6CB14C2F2000431
:104CB00020460DF083F942F2190040F20002C0F6DE
:104CC0000100C0F600022146BDE8104010F0C8BA4D
:104CD00080B510F0A9FB10F0BBFB80BD80B510F0D3
:104CE000ABFB10F0BFFB10F0C9FB80BDF0B583B08B
:104CF00040F23C51C2F2000109780446C807BFF3F4
:104D00005F8F25D014B340F62C350027C2F2000582
:104D10006E4600BF2846012100F0E8F93046C8225F
:104D200000230DF0C7F9009801F046F9284600214C
:104D300000F0DCF93046C82200230DF0BBF90098E2
:104D400001F03AF90137B8B2A042E3D303B0F0BDA5
:104D500040F23C50C2F2000010F084FA0028D1D09A
:104D600040F62C30C2F20000052100F0AFF940F20D
:104D70003C50C2F2000010F0A9FAC3E70068704787
:104D80000160704770B543F26044C2F200042046EF
:104D90004FF4E13100F052FE42F62055C2F2000518
:104DA00028464FF4E13100F049FE43F26006C2F2BA
:104DB000000630464FF4E13100F040FE2046082165
:104DC0000022012300F00AFC2846082100220123CA
:104DD00000F004FC304608210022012300F0FEFB15
:104DE00070BD000008230268002908BF0C23C058CA
:104DF00008BF12040260704710B5044600F0F0FED0
:104E000000B110BD204600F0EDFE002818BF10BD17
:104E100000F02AF840F64830C2F2000010BD000051
:104E200080B511F099FB002818BF012080BD00005B
:104E300080B542F6A440C2F200000068002808BF16
:104E400080BD4FF0FF3112F039FC80BD80B542F6D5
:104E5000A440C2F200000068002808BF80BD4FF0E7
:104E6000FF3112F02BFC80BD80B540F24050C2F201
:104E700000000078BFF35F8FC00700D080BD40F214
:104E80004050C2F2000010F0EDF9002808BF80BDCC
:104E900040F648304CF6AC11C2F20000C0F60101F9
:104EA0004FF4165200F0E2F840F24050C2F2000017
:104EB00010F00CFA80BD000080B542F6A440C2F2AA
:104EC00000000068002818BF12F042FC80BD0000FE
:104ED00080B542F6A440C2F200000068002818BF66
:104EE00012F036FC80BD000080B510F073FF14F0A6
:104EF0001BF800F055F814F04BF810F0ADFF80BD32
:104F0000B0B50C464542FBF74DFA056040F2AC20C7
:104F1000C2F20000002140F82410B0BD810707D480
:104F200041074FBF01210107092202EAE17100E0B8
:104F3000022110F00C0F00F0040018BF01F5007101
:104F400041EA00207047000010B540F2C450C2F2A0
:104F5000000001F05BFD01F091F840F2AC20032469
:104F6000C2F2000050F8241019B10134102CF9D10C
:104F70001024102C06D3FBF715FA182101604FF00E
:104F8000FF3403E04FF0FF3140F8241040F2C450EA
:104F9000C2F2000001F03AFD01F092F8204610BD87
:104FA00080B513F0EDFF80BDD0E90001096808402D
:104FB00018BF012070470000D0E9000109680840CF
:104FC00018BF01207047000080B540F20861C2F2AE
:104FD00000010968002918BF884780BD0FF0FFBF96
:104FE00080B5AFF30080BDE8804010F0A3B880B575
:104FF000AFF30080BDE8804010F09CB880B5AFF3FF
:105000000080BDE8804010F095B80000002A04BF81
:105010000020704710B542F6C840C2F200000C46AE
:1050200013F0A8FD2070012010BD00006FF01C00DF
:10503000704700006FF015007047000000207047B7
:10504000F0B581B0144662B142F6C8454E1EC2F2B8
:105050000005274616F8011F284613F02DFF013FD3
:10506000F8D1204601B0F0BD01207047F0B581B005
:1050700015460E46044600F087F842F61451C2F277
:1050800000014CF274000968C0F60100083020608D
:1050900059B942F6C847C2F200073846314613F004
:1050A000F1FD3846294613F08DFC204601B0F0BDD5
:1050B00080B500F073F810F03DF880BD80B5FFF7C3
:1050C00073FF80BD80B5FFF78DFE80BD10B504462F
:1050D0000020C4E90000C4E90200C4E90400A061A2
:1050E000204610F0CBFF204610BD000010B504464E
:1050F000FFF7E8FF204610BD80B5FFF7DFFF80BD5A
:105100006FF01500704700006FF01800002918BFFD
:10511000002070476FF015007047000070B504461E
:1051200000680021036920460122984705460028AF
:105130000DD4206800210369204602229847216887
:1051400006460B69204629460022984735462846E0
:1051500070BD00000020704780B5016801220B6916
:105160000021984780BD0000704700000020704774
:1051700080B5016800220B690021984780BD0000BE
:105180006FF01500704700004CF23C11C0F60101B1
:105190000831016070470000FEDE0000704700002B
:1051A00080B54C3013F0E6FC80BD000010B54C30EB
:1051B0000C4613F081FE204610BD000010B500EB38
:1051C000011000F19804204601F0BCFC002808BF43
:1051D00010BD204601F0B2FC10BD000070B50446C1
:1051E00000680D4602682046904794F8BC00A8422B
:1051F0003CD005B394F8BD0040B9D4E90110C20712
:1052000004EB600001D002685158884710F0E2FDBD
:105210009DB104F19806304601F094FCD8B13046B7
:1052200001F074FC13F080FE04F14C000021012217
:1052300013F0ECFD0FE010F0CDFD04F14C00002167
:10524000002213F0E3FD04F1980001F07BFC00283C
:1052500018BF13F09DFE10F0FFFD84F8BC502DB96F
:1052600094F8BD0010B9204600F0FCF820684168B1
:105270002046884770BD000070B5044600680D46A2
:1052800002682046904794F8BD00A8423CD005B380
:1052900094F8BC0040B9D4E90110C20704EB6000E7
:1052A00001D002685158884710F094FD9DB104F177
:1052B000A806304601F046FCD8B1304601F026FC85
:1052C00013F032FE04F14C000121012213F09EFD87
:1052D0000FE010F07FFD04F14C000121002213F0DB
:1052E00095FD04F1A80001F02DFC002818BF13F073
:1052F0004FFE10F0B1FD84F8BD502DB994F8BC00FC
:1053000010B9204600F0AEF8206841682046884772
:1053100070BD0000B0B5044600680D460268204626
:10532000904704F14C00294613F04CFB2068C4F868
:10533000B850416820468847B0BD00007047000063
:1053400070B5B0F9BE10B0F9C02000F14C060446AB
:10535000304613F02FFCD4E9325000F0010151EA3D
:1053600005020BD004EB600009B101684D5994F8B7
:10537000D010B4F9D220B4F9D430A847D4F8B8107A
:10538000304613F01FFB45F2BD11C0F60001304658
:10539000224613F02DFD70BDF0B585B00DF1040C63
:1053A0000446DDE90A058CE80E00216804900968CE
:1053B0002046884715B994F8BC0020B9012D2BD19F
:1053C00094F8BD0040B310F005FD01A801F0BAFB50
:1053D000074604EB051000F19806304601F0B2FBD9
:1053E00047B1002808BF13F09FFD01AB0FCB0FC6DC
:1053F000012608E0002818BF13F0CAFD304600213E
:10540000002600F0D9FC04F14C002946324613F086
:10541000FDFC10F021FD05E001AF04EB05108ECF7F
:1054200098308EC0206841682046884705B0F0BD9E
:105430002DE9F0410646054656F84C0B1746026822
:10544000284698460C469047304621463A46434601
:1054500013F0C4FA2868416828468847BDE8F081FF
:105460007047000080B54C3013F024FB80BD000075
:10547000B0B50546044655F84C0B016820468847F0
:10548000284613F02DFD21680546496820468847C7
:105490002846B0BDB0B50546044655F84C0B01682A
:1054A00020468847284613F033FD216805464968A1
:1054B000204688472846B0BD2DE9F04104464CF20D
:1054C0008C100E46C0F6010045F241310830C0F69E
:1054D0000001002584E8230004F10C0021461F464A
:1054E000904600F049FE04F12800A58400F032FC4B
:1054F00004F1380000F02EFC04F14C003521A4F832
:105500004850A4F89450FBF706FD84F89050C4E985
:105510002155C4F88C509825601900F035FC1035E1
:10552000B82DF9D140F20110A4F8BC0000204FF0D2
:10553000FF31C4F8B870A4F8BE60A4F8C080C4E914
:105540003100C4F8CC0084F8D000C4F8D210C4E90B
:105550003600C4F8E000D4E90110C20704EB600093
:1055600001D00268515888472046BDE8F08100000C
:1055700080B500F003F80FF0DDFD80BDF0B587B019
:1055800004464CF28C10C0F601000830002603AF30
:10559000206000BF3846002100F0F2FB03AB069804
:1055A0000ECBF5B2009020460195FFF7F5FE0136CF
:1055B000012EEFD004F10C0000F0ECFD204607B006
:1055C000F0BD000080B50430FFF7F6FC80BD0000A0
:1055D00080B500F5407000F073FD80BDF0B581B07E
:1055E0001C4615460E46074600F022FA384631465C
:1055F0002A462346FFF71CFF3846FFF7E9FF01B0B4
:10560000F0BD0000B0B50C46054600F011FA284682
:105610002146FFF7E3FD2846FFF7DAFF0020B0BD83
:105620000246002082F8341370470000B0B50C46E3
:10563000054600F0FDF928462146FFF71DFE2846E5
:10564000FFF7C6FF0020B0BDB0B586B0044645F6F2
:105650005512C0F6000202A821460023002500F0E2
:1056600089FC02AB05980ECB009020460195FFF710
:1056700093FE012084F8360306B0B0BDB0B586B005
:10568000044645F6C112C0F6000202A821460023D6
:1056900000F070FC02AB05980ECB0125009020466F
:1056A0000195FFF779FE84F8355306B0B0BD0000D0
:1056B000B0B586B0044602A80021002500F060FBCA
:1056C00002AB05980ECB009020460195FFF764FED3
:1056D00084F8365306B0B0BD70B586B0044602A853
:1056E0000021002600F04CFB02AB05980ECB0125F3
:1056F000009020460195FFF74FFE84F8356306B011
:1057000070BD0000F0B581B014460E46054600F5A8
:10571000FA7700BF384601F0B3F918B9284600F00F
:105720004FF9F7E74CB1013E274600BF16F8011FBD
:105730002846FFF73BFD013FF8D1204601B0F0BD00
:105740002DE9F041002A3FD017468846044600F074
:105750006FF904F1E80500BF284601F091F960B146
:1057600094F834632046FFF733FF86B3012014F02A
:10577000EDF9204600F05CF9EEE70026284601F03E
:105780007FF938B908EB0601284600F0BBF901366D
:10579000BE42F3D310F01EFB94F8380360B194F8C6
:1057A000360348B9204600F0D5F8284601F05EF9E6
:1057B00010B92046FFF748FF10F04EFB2046FFF7D8
:1057C00007FF3046BDE8F0810020BDE8F0816FF0B2
:1057D0000A00BDE8F08100006FF01C007047000077
:1057E00070B5044600F024F904F5FA75284601F076
:1057F00047F906462046FFF7EBFE76B9012014F084
:10580000A5F9204600F014F9284601F039F90646BA
:105810002046FFF7DDFE002EF0D0002070BD000016
:1058200010B500F54974204601F08CF9002808BF36
:1058300010BD204601F082F910BD00000020704725
:105840002DE9F04381B0DDF820901E4617460C4646
:10585000054610F0BFFA05F549784046C5E9C94745
:10586000C5E9CB6901F06EF938B12846002101F095
:10587000E5F810B1404601F061F910F0EDFA01B021
:10588000BDE8F0832DE9F04381B062B190460C464B
:10589000814610F0F1FA40B1484621464246FFF7F2
:1058A00031FF064650E000264EE0484600F0C0F8C2
:1058B00009F5FA75002603E010F0CEFA46453CD211
:1058C000284601F0D3F888B199F83403A8B300BF93
:1058D0004846FFF77DFE012014F038F9484600F0F5
:1058E000A7F8284601F0C2F80028F1D146450ED2AB
:1058F000284601F0BBF850B928462146671C00F045
:1059000023F90136B0453C46F2D146463C4610F0FC
:1059100061FA99F837030028CED099F835030028AA
:10592000CAD1484600F04CF8284601F0A9F80028F2
:10593000C2D14846FFF7A2FEBEE74846FFF748FE41
:10594000002E08BF6FF00A06304601B0BDE8F083B4
:1059500001207047F0B581B000F1E8050446284603
:1059600001F08EF80646284601F080F8A0B90DF146
:10597000030700BF2046FFF77BFD68B12046FFF715
:105980000FFC8DF803002846394600F0DDF8284664
:1059900001F06CF80028EDD094F8360330B12846B9
:1059A00001F064F810B12046FFF782FE36B12846B8
:1059B00001F066F810B92046FFF732FF01B0F0BDE4
:1059C000F0B581B000F5FA750446284601F04EF8AE
:1059D00006462046FFF75EFD88B10DF1030700BFC4
:1059E0002846394600F08EF848B19DF8031020464D
:1059F000FFF7DCFB2046FFF74DFD0028F0D194F8BF
:105A0000350330B1284601F03BF810B12046FFF7CE
:105A100063FE56B1284601F029F830B9204601F05E
:105A200001F810B92046FFF7FBFE01B0F0BD000001
:105A300080B500F5407000F021FB80BD80B5FFF718
:105A400069FC80BD10B50446FFF736FDE430FFF772
:105A50009BFB4CF2A410C0F6010000F1080150308D
:105A6000C4F8E40004F1E800216000F099F804F5BE
:105A7000FA7000F095F804F5407000F049FB04F569
:105A8000497000F081F90120C0F20010C4F834031D
:105A9000012084F838030020C4F83C032046FFF7B7
:105AA000D3FD204610BD000080B500F003F80FF0D4
:105AB00041FB80BDB0B504464CF2A410C0F6010015
:105AC00000F10801216000F15001D4F83C032546A3
:105AD00045F8E41F10B101684968884704F5407033
